:100000000C94B2050C94F9050C94F9050C94F905BF
:100010000C94F9050C94F9050C94F9050C94F90568
:100020000C94F9050C94F9050C94F52E0C94C72F3B
:100030000C942B260C94F9050C94F9050C94F905F5
:100040000C94F9050C94F9050C94F9050C94F90538
:100050000C94F9050C9493260C94F9050C94F9056D
:100060000C94F9050C94F9050C94F9050C94F90518
:100070000C94F9050C94F9050C94F9050C94F90508
:100080000C94F9050C94F9050C94F9050C94F905F8
:100090000C94F9050C94F9050C94F9050C94F905E8
:1000A0000C94F9050C94F9050C94F90569136C137B
:1000B000741379137E13831388138D13921397137C
:1000C0009C13A113A313A613A913AC13AF13B2135C
:1000D000B413B913421B421B741B741BC11BE11BDD
:1000E000661D661D231CC01CD11CD11C321D3B1D6E
:1000F000661D5F1DE81DE81DFA1DFA1DF11DFA1DA4
:10010000FA1DFA1DE81DE81DF61DFA1DFA1DF61D63
:1001100034305B304D315B304D31A730CA304D311A
:1001200020312F312B0014001A0008001500170091
:100130001C0018000C001200130049002961040083
:100140001600070009000A000B000D000E000F004A
:100150003343D95CD75C1D001B0006001900050065
:1001600011001000360037005200D85CE000E300B8
:10017000E20001514C442C0000002A0002515000C2
:1001800051004F0035003A003B003C003D003E006E
:100190003F0040004100420043002702E2021E02ED
:1001A0001F0220022102220223022402250234001F
:1001B0002E003000E100AA00A900A8000100010003
:1001C0002D002E00380031004B00E500E00001005A
:1001D0000100010001002D020000010001004A00A1
:1001E0004E004D004600440045002E00380200003D
:1001F000000033022D0037020100460001003400E8
:1002000034022F022F002602270230003002340071
:10021000340201000100C35CC45CC95CCA5CC95CF7
:10022000CA5C2E00360037004B00010001000100BF
:10023000010001004C002C000000010001004A00F8
:100240004E004D000100000005001A0008000700E4
:100250001C00AA00A90000000000005C01004A0088
:100260004A004B004E004D005000510052004F001C
:100270000000010001002D003400230221022E04A1
:1002800057015601000000000000E50001000100D8
:100290000100E100E1012C0000002A000000000044
:1002A0000000E40001000100010001000100010064
:1002B00000002400250026005600C25C0100540006
:1002C00055005600570001002E0021002200230097
:1002D00057000100010001000100010001000100C0
:1002E00000001E001F002000670001000100010047
:1002F0000000000000000100000027006300000073
:10030000BB5CBC5C44454255473A206469736162FA
:100310006C65642E0A0044454255473A20656E617B
:10032000626C65642E0A000A002530313662003A9C
:10033000200025303258000A722F632030313233CA
:100340003435363738394142434445460A007267EE
:10035000626C696768742074696D65722064697382
:1003600061626C652E0A007267626C69676874204E
:1003700074696D657220656E61626C65642E0A0039
:100380007267626C6967687420736574206873763D
:10039000205B4E4F454550524F4D5D3A2025752C00
:1003A00025752C25750A007267626C696768742070
:1003B00073657420687376205B454550524F4D5DE0
:1003C0003A2025752C25752C25750A007267626CFC
:1003D00069676874207261696E626F7720736574F3
:1003E000206873763A2025642C25642C25642C25FE
:1003F000750A007267626C6967687420646973616A
:10040000626C65205B454550524F4D5D3A207267E6
:10041000626C696768745F636F6E6669672E656E8C
:1004200061626C65203D2025750A007267626C6907
:1004300067687420656E61626C65205B454550524B
:100440004F4D5D3A207267626C696768745F636FD5
:100450006E6669672E656E61626C65203D2025754C
:100460000A007267626C6967687420746F67676CF2
:1004700065205B454550524F4D5D3A207267626C76
:10048000696768745F636F6E6669672E656E616227
:100490006C65203D2025750A007267626C6967688B
:1004A00074206D6F6465205B4E4F454550524F4D33
:1004B0005D3A2025750A007267626C69676874206E
:1004C0006D6F6465205B454550524F4D5D3A202568
:1004D000750A007267626C696768745F696E697437
:1004E000207267626C696768745F636F6E666967C4
:1004F0002E6D6F6465203D20302E20577269746523
:100500002064656661756C742076616C7565732016
:10051000746F20454550524F4D2E0A007267626C31
:10052000696768745F696E6974206565636F6E667C
:100530006967206973206E6F7420656E61626C65F7
:10054000642E0A007267626C696768745F696E691D
:1005500074207374617274210A007267626C696737
:1005600068745F696E69742063616C6C65642E0ADF
:10057000007267626C696768745F636F6E66696753
:100580002E7370656564203D2025640A00726762E1
:100590006C696768745F636F6E6669672E76616CFD
:1005A000203D2025640A007267626C696768745F89
:1005B000636F6E6669672E736174203D2025640A3F
:1005C000007267626C696768745F636F6E66696703
:1005D0002E687565203D2025640A007267686C6985
:1005E0006768745F636F6E6669672E6D6F64652000
:1005F0003D2025640A007267626C696768745F63F6
:100600006F6E6669672E656E61626C65203D2025A0
:10061000640A007267626C696768745F636F6E6614
:10062000696720454550524F4D3A0A0000047F3F0C
:100630001F643214643214783C1E1E140A052223EF
:10064000252628292A2C2D2F3032333536383A3BAF
:100650003D3E4042434547494A4C4E505153555701
:10066000595A5C5E6062646668696B6D6F71737520
:1006700077797B7D7F81838587898A8C8E90929420
:1006800096989A9C9E9FA1A3A5A7A8AAACAEAFB12D
:10069000B3B4B6B8B9BBBCBEBFC1C2C3C5C6C7C977
:1006A000CACBCCCDCED0D1D2D2D3D4D5D6D7D7D831
:1006B000D9D9DADADBDBDBDCDCDCDCDCDDDDDDDD83
:1006C000DCDCDCDCDCDBDBDBDADAD9D9D8D7D7D68B
:1006D000D5D4D3D2D2D1D0CECDCCCBCAC9C7C6C542
:1006E000C3C2C1BFBEBCBBB9B8B6B4B3B1AFAEAC88
:1006F000AAA8A7A5A3A19F9E9C9A98969492908E33
:100700008C8A89878583817F7D7B79777573716F0B
:100710006D6B6968666462605E5C5A5957555351E7
:10072000504E4C4A4947454342403E3D3B3A38369D
:10073000353332302F2D2C2A292826252322FFAAB3
:100740007F55406261636B6C696768742073746580
:10075000703A2025750A006261636B6C6967687482
:100760002064697361626C650A006261636B6C6925
:1007700067687420656E61626C650A006261636B14
:100780006C6967687420746F67676C653A202575BB
:100790000A006261636B6C696768742064656372E8
:1007A000656173653A2025750A006261636B6C6947
:1007B00067687420696E6372656173653A20257598
:1007C0000A0000010101010101010101020202020E
:1007D00002020202020303030303030303040404EB
:1007E00004040404050505050506060606060707B4
:1007F00007070708080808090909090A0A0A0B0B6C
:100800000B0C0C0C0D0D0D0E0E0E0F0F0F1010110A
:100810001111121213131414151516161717181890
:1008200019191A1A1B1B1C1D1D1E1E1F20202122F8
:1008300022232424252626272829292A2B2C2D2D3E
:100840002E2F30313232333435363738393A3B3C5B
:100850003D3E3F404142434445464748494A4C4D4E
:100860004E4F50515354555658595A5B5D5E5F6117
:100870006264656668696B6C6D6F707273757778AA
:100880007A7B7D7E8082838587888A8C8E8F919308
:100890009596989A9C9EA0A2A3A5A7A9ABADAFB12F
:1008A000B3B5B7BABCBEC0C2C4C6C9CBCDCFD1D414
:1008B000D6D8DBDDDFE2E4E7E9EBEEF0F3F5F8FABA
:1008C000FDFF0A002530325820006B6579626F61A8
:1008D00072645F7265706F72743A20000A0025308E
:1008E0003258006B6579626F6172645F7365745F23
:1008F0006C65643A200064656C5F6B65795F626962
:10090000743A2063616E27742064656C3A20253048
:1009100032580A006164645F6B65795F6269743A9A
:100920002063616E2774206164643A202530325858
:100930000A00290A002575002F002575005D280092
:100940002564002000256400200025640020002587
:1009500064007C0025303258006D6F7573656B65DF
:1009600079205B62746E7C782079207620685D281F
:100970007265702F61636C293A205B005B735D00C8
:100980004B6579626F6172642073746172742E0AB0
:10099000005B575D005B535D005B525D005B445D37
:1009A000005B435D0004033000000012034E004969
:1009B00000550020004D0069006E00690000001025
:1009C000034B0042004400460061006E00730000CB
:1009D000000403090409025B00030100A0FA0904F2
:1009E0000000010301010009211101000122400062
:1009F0000705810308000A09040100010300000043
:100A000009211101000122C0000705820320000A0C
:100A10000904020002030000000921110100012263
:100A200022000705830320000107050303200001BE
:100A30001201100100000008EDFE606001000102DB
:100A400003010631FF0974A1010975150026FF0095
:100A50009520750881020976150026FF00952075FE
:100A6000089102C005010902A10185020901A10046
:100A70000509190129051500250195057501810252
:100A80009501750381010501093009311581257F23
:100A900095027508810609381581257F950175082D
:100AA0008106050C0A38021581257F95017508819C
:100AB00006C0C005010980A10185031A81002A83AF
:100AC00000160100260300950175108100C0050C79
:100AD0000901A10185041A01002A9C0216010026C1
:100AE0009C02950175108100C005010906A10185D0
:100AF00005050719E029E71500250195087501810D
:100B0000020507190029EF1500250195F0750181EF
:100B100002050819012905950575019102950175D0
:100B2000039101C005010906A101050719E029E7A4
:100B3000150025019508750181029501750881014F
:100B40000507190029FF150026FF00950675088185
:100B50000005081901290595057501910295017592
:100B6000039101C011241FBECFEFDAE0DEBFCDBF7D
:100B700004B603FE27C08091990290919A02A09139
:100B80009B02B0919C028730904BA740B04BD1F4B0
:100B90001092990210929A0210929B0210929C025B
:100BA00014BE84B7877F84BF0FB6F894A895809150
:100BB0006000886180936000109260000FBEE0E0EA
:100BC000F8E3099511E0A0E0B1E0E6EDF4E602C03B
:100BD00005900D92A836B107D9F722E0A8E6B1E05A
:100BE00001C01D92A939B207E1F70E94152C0C949F
:100BF00069320C940000FF93EF93E0916801F0914B
:100C00006901309709F00995EF91FF910895FC0172
:100C10008591803011F0EFDFFBCF0895FF27E0E2F0
:100C200030E247FF0CC0419597FF09C0EDE26095A7
:100C3000709580959095611D711D811D911D27FFF7
:100C400002C0219530E350E2AA27660F771F881F64
:100C5000991FAA1FA41710F0A41B63955A95A9F712
:100C6000AA3008F0A95FA05DAF93F39561157105F7
:100C70008105910541F7ED3211F4EF93F395F217E9
:100C800018F43F93F395FBCF8F91B5DFFA95E1F719
:100C90000895E991F9918591803021F0853219F01C
:100CA000AADFF9CF089520E0E89455915532C1F3B9
:100CB000503311F4689455915A3348F4505390F3DB
:100CC000220F022E220F220F200D250FF4CF0EF43B
:100CD000219589919991533619F3533729F1533559
:100CE00059F1BC0188279927E8945C3621F4899151
:100CF000999168945591543639F446EF7EF077FF18
:100D00000DC08FEF9FEF0AC055374AE039F05835D4
:100D100040E121F0523642E009F00895FF93EF934D
:100D20007DDFEF91FF91B7CFFF93EF93FC018191AE
:100D30008030B9F360DFFBCFFF93EF9368DFF1CF33
:100D4000DF93CF93CDB7DEB72596A3DFCF91DF91A9
:100D500008956E9A769A0C94830A81E0089581E052
:100D600008950C94AF061F93CF93DF9300D000D06B
:100D70001F92CDB7DEB749835A8320918E018981B6
:100D80009A81211112C0662349F00E940D23182F69
:100D9000682F89819A810E94B22203C00E94E122B9
:100DA000182F69817A81812F04C00E940D236981E7
:100DB0007A810F900F900F900F900F90DF91CF914D
:100DC0001F910C94A107FC014081518162817381C4
:100DD00084810C94B3060E947224811102C00E9487
:100DE0001B250E9477150C94A9060C94850A08957A
:100DF0000C94F70681E008950C94FA06CF93C82F5F
:100E00000E94F8068C2F0E94FC06CF910895089549
:100E10000E94D81D0E9407072FEF84E39CE0215019
:100E200080409040E1F700C000000C94B9260F9379
:100E30001F93CF93DF938C010E94E306EC01B8016E
:100E40000E94B106882309F471C0B801CE010E9446
:100E50002B16882309F46AC0B801CE010E946C16D3
:100E6000882309F463C0B801CE010E94521388237D
:100E700009F45CC0F8018281882339F1C1308CE526
:100E8000D80759F0CE3DECE5DE07E1F0C115FCE5F1
:100E9000DF07D9F40E94080749C080911202C82FC9
:100EA000C095C170C0FB80F980931202CC2329F059
:100EB00086E193E00E94070639C084E093E00E9437
:100EC000070635C00E941B2531C0C631DC4539F507
:100ED0000E948D23282FF8018281409110015091AA
:100EE0001101882379F02A7A91E009F490E0909337
:100EF0006A01911102C069E201C065E3CA010E9462
:100F0000A9250AC080916A01811102C069E201C06D
:100F100065E3CA010E94B4250E94D92307C0C80115
:100F2000DF91CF911F910F910C94AD06C0E08C2FF3
:100F3000DF91CF911F910F91089580E090E0089587
:100F400008959CE0799FF001112490E3899FE00DC2
:100F5000F11D1124E60FF11DEE0FFF1FEC5DFE4F9A
:100F6000859194910895880F991FFC01E95DFC4FCC
:100F7000859194910895CF93DF930E94A1070E94D9
:100F8000AC09EC01811521E5920708F042C08115FA
:100F900060E5960708F02FC1883E910500F5803E78
:100FA000910508F0D5C1883A910570F4853A91050C
:100FB00008F0A4C08130910509F4CAC108F47BC1CE
:100FC000049708F0C5C177C18F3B910508F4A1C013
:100FD000803C910508F46FC1805C9109FBC0C1158C
:100FE00080E3D80780F4C11590E2D90708F0F0C07B
:100FF000C03FD10508F45FC1CF3FD10511F008F023
:10100000A7C1D065A5C1C11520E4D20708F0F0C082
:10101000E5C0811569E5960760F5C11588E5D80733
:1010200008F035C1C11594E5D90778F4C11523E559
:10103000D20708F011C1C11562E5D60708F0F6C065
:10104000DC2FCC27C16FD06A83C1C11585E5D807D5
:1010500008F418C1C11596E5D90708F02CC18C2FEA
:101060000E94400A8F71C82FD0E0DC2FCC27D062BD
:101070006FC18D3B2CE5920709F414C1E0F4CB3B22
:101080008CE5D80709F408C108F009C1C1152AE5A3
:10109000D20708F010C18C2F8F700E94400A94E094
:1010A000D695C7959A95E1F7CF70D0E0DC2FCC2785
:1010B000D069C82B4DC1803C9C4509F4F9C0C13CA6
:1010C0008CE5D80760F4CE3B9CE5D90709F4EDC068
:1010D000CF3BDC4509F0EFC0C0E0D2ED39C1CE0115
:1010E00090568115904208F0E6C08D2F8F710E94B6
:1010F000400ADD27D0628F71D82B2AC1853A91052D
:1011000009F4DCC0863A910509F0DBC0C2E8D0E4FE
:101110001FC1883A910509F4D7C0893A910509F4AD
:10112000D6C08A3A910509F4D5C08B3A910509F4E5
:10113000D4C08C3A910509F4D3C08B3B910509F4D6
:10114000D2C08C3B910509F4D1C08D3A910509F4C8
:10115000D0C0803B910509F4CFC08E3A910509F4C7
:10116000CEC08F3A910509F4CDC0813B910509F4B9
:10117000CCC0823B910509F4CBC0833B910509F4B7
:10118000CAC0843B910509F4C9C0853B910509F4A7
:10119000C8C0863B910509F4C7C0873B910509F497
:1011A000C6C0883B910509F4C5C0893B910509F487
:1011B000C4C08D3B910509F4C3C08E3B910509F471
:1011C000C2C08A3B910509F4C1C0C0E0D4E4C0C0EC
:1011D000CE019F700E94B307EC01BAC0CE019927DF
:1011E000D3FF03C0EC01D86CB3C0EC01D06CB0C02D
:1011F000DF70D06AADC0837021E030E002C0220F02
:10120000331F8A95E2F73C68CE0174E09695879586
:101210007A95E1F78370382BCF70C695C69580E23A
:10122000C89FE0011124C22BD32B92C04C2F4695AE
:10123000469590E2499FA0011124C370DD2721E06B
:1012400030E0C90102C0880F991FCA95E2F7EC018E
:10125000C42BD52BDC687CC04C2F4695469580E28C
:10126000489FA0011124C370DD2721E030E0C901AF
:1012700002C0880F991FCA95E2F7EC01C42BD52B49
:10128000DA6866C0DC2FCC27C46FD06A61C0DC2F5F
:10129000CC27C06FD06A5CC0C0E0D4ED59C0C0E0BC
:1012A000D5ED56C0C0E0D1ED53C0C0E0D0ED50C088
:1012B000C0E0D3ED4DC0C0E0D0E04AC0C1E8D0E40A
:1012C00047C0C3E8D0E444C0C2EED4E441C0C9EE94
:1012D000D4E43EC0CAEED4E43BC0C5EBD4E438C08D
:1012E000C6EBD4E435C0C3EBD4E432C0C4EBD4E4E1
:1012F0002FC0C7EBD4E42CC0CCECD4E429C0CDEC97
:10130000D4E426C0C3E8D5E423C0CAE8D5E420C0AD
:10131000C2E9D5E41DC0C4E9D5E41AC0C1E2D6E4EF
:1013200017C0C3E2D6E414C0C4E2D6E411C0C5E2DB
:10133000D6E40EC0C6E2D6E40BC0C7E2D6E408C0CD
:10134000CFE6D4E405C0C0E7D4E402C0CAE2D6E4E4
:10135000CE01DF91CF9108958238910569F1B0F403
:101360008133910509F46DC048F48932910509F47F
:1013700063C08A32910509F469C0089585339105E7
:1013800009F455C089339105B9F00895833E91055C
:1013900069F138F4803E9105B1F0823E910509F182
:1013A0000895863E9105A9F1873E9105B9F1843EE5
:1013B000910509F064C023C020918A0220FD4FC02E
:1013C00021FD4DC0089580918A0280FD44C0809126
:1013D0008B0280FF44C080918A0284FD42C083EE6C
:1013E0004DC080918A0282FF38C0F5CF80918A0279
:1013F00082FD33C080918B0280FD31C0ECCF8091A3
:101400008B0281FF32C080918A0284FD2AC087EE60
:1014100035C080918A0283FF26C0F5CF80918A0271
:1014200083FD21C080918B0281FD1FC0ECCF809194
:101430008A0285FD1CC01DC080918A0285FD19C0ED
:1014400016C080918A0286FD16C017C080918A025C
:1014500086FD13C010C089E311C082EE0FC080EE7C
:101460000DC080E00BC086EE09C084EE07C089E2A3
:1014700005C085E303C08AE201C081E390E00895DE
:1014800090918A0292FF0DC0282F2871283019F4FC
:10149000877F846006C0282F2471243011F48B7F4D
:1014A000886093FF0DC0282F2871283119F4877E9A
:1014B000846106C0282F2471243111F48B7E886149
:1014C00020918B0220FF0DC0382F3871383019F46D
:1014D000877F816006C0382F3171313011F48E7FE3
:1014E000886021FF0DC0282F2871283119F4877ECC
:1014F000816106C0282F2171213111F48E7E88610F
:1015000094FD877E0895089508950C94840AE82F29
:10151000F0E0EE0FFF1FE45BFD4F808191810895A5
:10152000CF92DF92EF92FF920F931F93CF93DF93AF
:1015300087E393E00E9407068CE4E82E82E0F82E11
:10154000C0E0D0E092E3C92E93E0D92E09E213E087
:10155000DF93CF93DF92CF920E94A0068FE293E0B9
:101560000E940706F701819191917F010E94582402
:101570009F938F931F930F930E94A00687E293E09F
:101580000E94070621968DB79EB708960FB6F8946D
:101590009EBF0FBE8DBFC430D105D1F6DF91CF9174
:1015A0001F910F91FF90EF90DF90CF900895AFE2E1
:1015B000B1E041E050E024E02A0F8D91E82FE29560
:1015C000EF70F0E031A18F70BA0102C0660F771F93
:1015D0008A95E2F7CB01962F9095932391A392A140
:1015E000892B82A32A13E9CFA3E2B1E041E050E0C6
:1015F0002CE02A0F8D91E82FE295EF70F0E031A1F9
:101600008F70BA0102C0660F771F8A95E2F7CB018F
:10161000962F9095932391A392A1892B82A32A13AD
:10162000E9CF109245021092440210924D0210929E
:101630004C02109247021092460210924F021092F2
:101640004E021092490210924802109251021092DA
:10165000500210924B0210924A02109253021092C2
:10166000520284E00E94CD0B0C94EB065F926F92C5
:101670007F928F929F92AF92BF92CF92DF92EF9222
:10168000FF920F931F93CF93DF930FE211E0A4E437
:10169000B2E0612CEE24E394F12C5D018D909C90DE
:1016A000119711961C921E92E80189918E01E82FE4
:1016B000E295EF70F0E091A18F70A70101C0440F97
:1016C0008A95EAF7892F842B81A382A1542E509406
:1016D000852182A3D0EADA95F1F783E2C82E81E072
:1016E000D82E80E090E0E60179906E01272D2295BA
:1016F0002F7030E0E90168A12D913C91119770E0C5
:10170000D72DDF7002C075956795DA95E2F760FD19
:1017100008C0B701082E02C0660F771F0A94E2F7CF
:1017200002C060E070E0262B372B11963C932E937D
:1017300001968C309105B9F681A1D52DD823D1A37E
:1017400082A1482B42A3129681E0F50120813181CC
:101750008216930609F480E0682AF2E0AC34BF07F1
:1017600009F09BCF262D44E06CE472E084E492E023
:101770000E94CE0B0E94F506862DDF91CF911F911E
:101780000F91FF90EF90DF90CF90BF90AF909F9020
:101790008F907F906F905F9008950895FF920F93C0
:1017A0001F93CF93DF93F82E092F162FD72FC42F17
:1017B000222349F081E080936D010E945D26909381
:1017C0006C0180936B0180916D018823D9F0809129
:1017D0006B0190916C010E946926069798F0EF2D9D
:1017E000F02FA12FBD2F80E090E04C2F50E0841708
:1017F000950734F4219131912D933D930196F7CFC4
:1018000010926D01DF91CF911F910F91FF9008957C
:10181000AF92BF92CF92DF92FF920F931F93CF931D
:10182000DF93D62E372FE82FF0E0711106C0EE536C
:10183000F84F6491762F862F75C0C72FD0E0EE53F6
:10184000F84F2491F22E022F10E046E0649FC00171
:101850001124EFEFF0E0BF010E94AA31AB016BEA67
:101860006403C001659F900D11248D0D911D8D0D98
:10187000911D982F990F890FDF01AC1BBD0B0A9F9B
:10188000B0010B9F700D1A9F700D1124972F839F2D
:10189000D0011124AB2FBB276F01CA1ADB0A0C9DA4
:1018A000D0010D9DB00D1C9DB00D11245F01A81A33
:1018B000B108AC9E6001AD9ED00CBC9ED00C112432
:1018C000CD2DDD27EC1BFD0B0E9FE0010F9FD00DF2
:1018D0001E9FD00D1124ED2F4230510591F04CF494
:1018E00041155105E1F041305105B9F4E22F2B2F9C
:1018F00016C04430510569F044F04630510579F086
:101900000CC0E22F272F9D2F0AC0272F9F2DEB2FD2
:1019100006C0E72F922F2D2F02C0E72F9B2F6E2F8F
:10192000722F892FDF91CF911F910F91FF90DF9040
:10193000CF90BF90AF9008950895CF93DF93762F07
:10194000E901682F842F0E94080C798368838A83B9
:10195000DF91CF91089580915402282F269530E091
:101960002115310519F48170826005C025323105D9
:1019700024F08170886480935402089588E090E098
:101980000C942932CF93DF9300D000D0CDB7DEB7CF
:10199000AB01BC0149835A836B837C830E94AB0CEF
:1019A00049815A816B817C8188E090E00F900F9093
:1019B0000F900F90DF91CF910C944732E4E5F2E065
:1019C00083E0808311828FEF82838383148260811E
:1019D0007181828193810C94C20C8091120280FFEC
:1019E00008C083E196E09F938F930E94A0060F901A
:1019F0000F908091120280FF0FC08091540281707D
:101A00001F928F9386EF95E09F938F930E94A0067D
:101A10000F900F900F900F908091120280FF0FC0D7
:101A20008091540286951F928F938BED95E09F9342
:101A30008F930E94A0060F900F900F900F908091AF
:101A4000120280FF0EC0809155021F928F9381EC8D
:101A500095E09F938F930E94A0060F900F900F9098
:101A60000F908091120280FF0EC0809156021F924B
:101A70008F9387EA95E09F938F930E94A0060F9023
:101A80000F900F900F908091120280FF0EC08091F6
:101A900057021F928F938DE895E09F938F930E943A
:101AA000A0060F900F900F900F908091120280FF70
:101AB0000EC0809158021F928F9381E795E09F930B
:101AC0008F930E94A0060F900F900F900F90089593
:101AD0008091540280FF02C08695089580E00895A9
:101AE00080915802833018F48F5F80935802609180
:101AF00054027091550280915602909157020C94B5
:101B0000C20C80915802882319F0815080935802AA
:101B10006091540270915502809156029091570243
:101B20000C94C20C6091040170E08091540280FF1B
:101B30000AC08091720123E0829FC0011124875A5C
:101B40009D4F0C94BB1580917101909103018917F1
:101B500080F7E82FF0E09F01220F331FE20FF31F01
:101B6000E75AFD4F1182108212828F5FF0CF909161
:101B7000540290FF16C090917101209103019217B9
:101B800070F4E92FF0E0DF01AA0FBB1FEA0FFB1F83
:101B9000E75AFD4F8183608342839F5FF0CF0C94AF
:101BA000920D0895CF93DF9300D01F92CDB7DEB78B
:101BB0009091540290FF0AC09E012F5F3F4F0E94F8
:101BC0009D0C4B8169818A810E94B70D0F900F9007
:101BD0000F90DF91CF910895CF93DF93EC01EC81CB
:101BE000F0E0E25CF94F4491E4E5F2E0628181814A
:101BF0000E94D20D8C818F5F8C83DF91CF910895ED
:101C0000CF93DF93EC01E4E5F2E0438162818C81C4
:101C10000E94D20D8C818F5F8C83DF91CF910895CC
:101C20000F931F93CF93DF9300D01F92CDB7DEB7F2
:101C30008C0180916E0181110AC09E012F5F3F4F80
:101C40004FEF6FEF0E949D0C8A8180936E01F80127
:101C50008481813051F028F0823061F440916E012E
:101C60000AC080916E0140E007C060916E0140E0C3
:101C700080E003C040E080E060E00E94B70DF80122
:101C8000248130E0C901019663E070E00E94BE311A
:101C900084830F900F900F90DF91CF911F910F9140
:101CA00008956F927F928F929F92AF92BF92CF9240
:101CB000DF92EF92FF920F931F93CF93DF9300D0A9
:101CC00000D0CDB7DEB7182FD62E042FB22E9091AC
:101CD000540290FFB2C0E92FE695AE2FB0E0AD5CA4
:101CE000BE4F8C9180937A019E7F923061F49E0169
:101CF0002F5F3F4F812F0E949D0C4B8169818A810C
:101D00000E94B70D60C0823019F4009157025BC089
:101D1000863019F41091550256C08930D9F38931B3
:101D200009F051C0E9518E2F80958170C82EE6953B
:101D3000F0E0E25CF84FE590F490A12CFF242CEC4D
:101D4000822E23E0922E60910201A616D0F56A2C15
:101D5000712C6E9CC0016F9C900D7E9C900D112487
:101D600070E00E94AA31812FCC2011F0860F01C0B3
:101D7000861B9091120290FF13C0FF92EF921F9268
:101D8000CF921F928F931F92AF929F928F928C83CC
:101D90000E94A0060FB6F894DEBF0FBECDBF8C81A7
:101DA00090917101690E711C9301220F331F260D52
:101DB000371D275A3D4F402F6D2D0E949D0CA39437
:101DC000C2CF0E94920D10935502D09256020093FA
:101DD0005702BB20E9F06091540270915502809146
:101DE0005602909157020E94C20C8091120280FF0D
:101DF00024C0809157021F928F93809156021F92A8
:101E00008F93809155021F928F9387EA93E00CC0C5
:101E10008091120280FF11C01F920F931F92DF92D8
:101E20001F921F9380E893E09F938F930E94A006D8
:101E30000FB6F894DEBF0FBECDBF0F900F900F907E
:101E40000F90DF91CF911F910F91FF90EF90DF9056
:101E5000CF90BF90AF909F908F907F906F9008959C
:101E6000E4E5F2E09181282F4381628188E0890FC7
:101E70000C94510E81E00C94300FE4E5F2E0918176
:101E8000282F4381628188EF890F0C94510E81E0E5
:101E90000C943D0FE4E5F2E0628128E0620F08F463
:101EA0006FEF282F438181810C94510E81E00C94B7
:101EB0004A0FE4E5F2E0628128E0621B08F460E08A
:101EC000282F438181810C94510E81E00C94590F8D
:101ED000E4E5F2E0438128E0420F08F44FEF282FB9
:101EE000628181810C94510E81E00C94680FE4E5CD
:101EF000F2E0438128E0421B08F440E0282F628191
:101F000081810C94510E81E00C94770F20E00C94A9
:101F1000510EFF920F931F93CF93DF93EC01F12C9F
:101F20000FEF10E060910201F616E8F420917101C4
:101F300030E02F0D311DC901880F991F280F391F5F
:101F4000275A3D4F70E0C8010E94BE31962F8C8108
:101F50004091570260915602F99E800D11240E9413
:101F60009D0CF394DFCF0E94920D9A818C8190FF9B
:101F700002C08F5F01C081508C83DF91CF911F9190
:101F80000F91FF900895AF92BF92CF92DF92EF92A0
:101F9000FF920F931F93CF93DF93FC01828180FF09
:101FA00002C00FEF01C001E010E04EE0A42E8091CE
:101FB0000201181708F043C0C12ED12C8091710185
:101FC000E601C80FD11DCE01880F991FC80FD91F78
:101FD000C75ADD4F198218821A8234E0E32EF12CA1
:101FE000B12C809170018B0D8F302CF06A2D0E94E6
:101FF0009C31892F05C087FF03C090910201890F92
:10200000082E000C990BC816D90691F4809157023E
:102010008E9DA0018F9D500D112455954795559586
:1020200047959E0160915602809155020E949D0C39
:10203000B00EF1E0EF1AF108A1F61F5FB8CF0E94D1
:10204000920D80917001013031F4811102C08091B4
:102050000201815007C090E001966091020170E09A
:102060000E94BE3180937001DF91CF911F910F913B
:10207000FF90EF90DF90CF90BF90AF900895CF93F7
:102080008091710190910301891770F4E82FF0E0BD
:102090009F01220F331FE20FF31FE75AFD4F1182FA
:1020A000108212828F5FF0CFC0E060910201C617EC
:1020B000B8F5EC2FF0E070E0CF010E94BE31409106
:1020C0007101480F80916F01082E000C990B50E0B0
:1020D000E817F907C4F020910101022E000C330B20
:1020E0002E173F0784F09A01220F331F240F351F4C
:1020F000275A3D4F409157026091560280915502F8
:102100000E949D0C0BC0FA01EE0FFF1F4E0F5F1FC8
:10211000FA01E75AFD4F118210821282CF5FC5CFBC
:102120000E94920D2091000180916F01820F809397
:102130006F0190910101920F9093010119165CF4C7
:10214000082E000C990B4091020150E041505109BA
:10215000841795071CF0219520930001CF910895D5
:102160000F931F93CF93DF938C01FC0184819581A2
:1021700001968170992795838483C0E0D5E580918D
:102180000201C817F8F42091710130E02C0F311DC5
:10219000C901880F991F280F391F275A3D4F4C2F0F
:1021A0004695F80184819581840F911D817040913D
:1021B0005702609156028D9F802D11240E949D0C24
:1021C000CF5FDDCFDF91CF911F910F910C94920DD6
:1021D0000F931F93CF93DF93EC0100E010E0809109
:1021E0000201282F30E00217130724F590917101A6
:1021F0009801290F311DA901440F551F240F351FC8
:10220000275A3D4F869590E04C81081719071CF41A
:10221000442331F002C0411103C04091570201C074
:1022200040E060915602809155020E949D0C0F5F24
:102230001F4FD5CF0E94920D2C8130E02F5F3F4F72
:10224000217033272C83DF91CF911F910F91089537
:1022500060915402669570E04BE050E085E091E0BB
:102260000E941432892B19F481E080937B010E9433
:102270005D2690937401809373018091120280FF18
:1022800008C087E693E09F938F930E94A0060F906B
:102290000F90089510927B018091120280FF08C078
:1022A0008EE493E09F938F930E94A0060F900F906F
:1022B00008959091540290FF54C09170811102C012
:1022C000926006C0853210F0986402C0880F982B87
:1022D000909354026623B1F06091540270915502BC
:1022E00080915602909157020E94C20C8091120276
:1022F00080FF1BC08091540286951F928F9387EBBD
:1023000094E00BC08091120280FF0FC080915402B4
:1023100086951F928F9389E994E09F938F930E94F3
:10232000A0060F900F900F900F9060915402669549
:1023300070E04BE050E085E091E00E941432892B80
:1023400019F00E944A1102C00E94281181E0809376
:1023500076014091570260915602809155020C948B
:10236000860F0895682F90915402969581E0890F09
:10237000853208F081E00C94591181E00C94B2117F
:10238000682F9091540296958FEF890F09F484E29B
:102390000C94591181E00C94C01161E00C94591116
:1023A000809154028160809354028091120280FFD8
:1023B0000DC01F9281E08F938BE294E09F938F93E7
:1023C0000E94A0060F900F900F900F9080915402E2
:1023D00086950C94CD1160E00C945911809179018F
:1023E000811160C08091120280FF08C08AE595E0EB
:1023F0009F938F930E94A0060F900F9080911202DE
:1024000080FF08C084E495E09F938F930E94A0060C
:102410000F900F900E947224811110C080911202BF
:1024200080FF08C08CE195E09F938F930E94A006E7
:102430000F900F900E941B250E94DE0C0E94BE0C84
:102440006093540270935502809356029093570202
:102450006E7FC1F48091120280FF08C083ED94E08A
:102460009F938F930E94A0060F900F900E94DE0C06
:102470000E94BE0C609354027093550280935602E2
:10248000909357020E94AB0C0E94ED0C10927B01BE
:102490008091540280FF03C086950E94EB1181E079
:1024A000809379010895809154028E7F8093540225
:1024B000609154027091550280915602909157029A
:1024C0000E94C20C8091120280FF0FC080915402C2
:1024D00081701F928F9383EF93E09F938F930E945D
:1024E000A0060F900F900F900F900E944A112FEFAF
:1024F00080E792E0215080409040E1F700C000006A
:102500000C94920D8091120280FF10C080915402B1
:10251000809581701F928F9382E694E09F938F93B2
:102520000E94A0060F900F900F900F908091540280
:1025300080FD0C9453120C94D0110F931F93CF93E2
:10254000DF9380917B01882309F48CC080917A010C
:10255000E0915402E695E81BE0937501823049F45E
:10256000F0E0E65CF94FE491CE2FD0E00CEE1DE0F8
:1025700049C0863049F4F0E0E95CF94FE491CE2F90
:10258000D0E000E01EE03EC0893051F4E695F0E076
:10259000EC5CF94FE491CE2FD0E009E81FE032C0A7
:1025A0008F3051F4E695F0E0EF5CF94FE491CE2FD7
:1025B000D0E003EC1FE026C0853149F4F0E0E25D95
:1025C000F94FE491CE2FD0E00FE310E11BC088312A
:1025D00081F0833239F4ECE2F6E0C591D49100E168
:1025E0001EE010C0843251F4C4EFD1E008EE10E1D7
:1025F00009C0C8EED3E000EB10E104C0C0EDD7E0A5
:102600000CE91CE080917601882389F01092760114
:102610000E945D269E0120953095820F931F909316
:102620007401809373011092780110927701809168
:102630007301909174010E9469268C179D0790F098
:10264000E0917301F0917401CE0FDF1FD0937401FC
:10265000C093730183E791E0F801DF91CF911F915F
:102660000F910994DF91CF911F910F9108958823C5
:1026700011F0FA0101C0FB010994CF93DF93C82F39
:10268000D62F0E94680D8C1740F00E94680D8D17A0
:1026900020F4DF91CF910C94BD118C2FDF91CF915D
:1026A0000C94CD110F931F93CF93FB01C281CC23C8
:1026B00009F463C08C010E948D238272F801E25CF0
:1026C000FC45E431F10508F059C0EA5AFF4F0C947B
:1026D000F4310E94821206C04AEC51E16DEB71E1C7
:1026E0000E943713C0E04AC04DEB51E16AEC71E142
:1026F000F7CF47E45FE06AE37FE0F2CF4AE35FE0D1
:1027000067E47FE0EDCF45E65FE066E57FE0E8CF98
:1027100046E55FE065E67FE0E3CF43E85FE064E73E
:102720007FE0DECF44E75FE063E87FE0D9CF41E8B8
:102730005DE060E77DE0D4CF40E75DE061E87DE00B
:10274000CFCF81E017C065E082E010C068E086E08E
:102750000DC06EE089E00AC064E18FE007C067E168
:1027600085E104C088E106C062E289E10E943D1370
:10277000B9CF83E20E94CD11B5CFC1E08C2FCF91AC
:102780001F910F9108950E947224811102C00E942E
:102790001B250E94A32480938302282F269526952B
:1027A000269530E02530310524F0877080628093D3
:1027B00083028091830280FF04C08695869586956A
:1027C00001C080E00C941A1520918302822F869517
:1027D00086958695482F50E04430510554F48F5F1C
:1027E000982F990F990F990F822F8770892B8093BB
:1027F0008302809183028160809383020E94A724D8
:102800008091120280FF11C0809183028695869587
:1028100086951F928F938AEA97E09F938F930E94E9
:10282000A0060F900F900F900F90809183028695D5
:10283000869586950C941A1580918302982F96950B
:1028400096959695A1F0915E990F990F990F8770C3
:10285000892B80938302887F91E009F490E0809136
:10286000830290FB80F9809383020E94A7248091C9
:10287000120280FF11C0809183028695869586950D
:102880001F928F9382E997E09F938F930E94A006F7
:102890000F900F900F900F908091830286958695F0
:1028A00086950C941A158091830280FD1FC081606B
:1028B00080938302813019F489E0809383028091B0
:1028C00083020E94A7248091120280FF08C08AE63A
:1028D00097E09F938F930E94A0060F900F90809196
:1028E00083028695869586950C941A150895809195
:1028F000830280FF14C08E7F809383020E94A724EE
:102900008091120280FF08C087E597E09F938F9324
:102910000E94A0060F900F9080E00C941A15089565
:10292000CF93C0918302C1708091120280FF0CC0CE
:102930001F92CF938CE797E09F938F930E94A006FE
:102940000F900F900F900F90CC2319F0CF910C9413
:102950007714CF910C94531490918302892F86950C
:10296000869586958F5F8F719770853038F4880FC4
:10297000880F880F892B8093830202C09093830273
:1029800080918302887F91E009F490E08091830236
:1029900090FB80F9809383020E94A7248091120209
:1029A00080FF11C0809183028695869586951F923F
:1029B0008F9383E497E09F938F930E94A0060F90DC
:1029C0000F900F900F908091830286958695869543
:1029D0000C941A15853008F084E09091830297706A
:1029E000282F220F220F220F922B90938302987F81
:1029F00021E009F420E09091830220FB90F990936C
:102A000083020C941A150E94EA14809183020C949C
:102A1000A724E82FE295EF70F0E032A1282F2F7065
:102A200081E090E001C0880F2A95EAF78095832322
:102A300082A30895CF92DF92EF92FF92853030F417
:102A4000811105C0909180009F7D04C084E0909129
:102A50008000906290938000282F30E0AFEFBFEFAE
:102A60000E94FA31DC01CB0142E0B695A79597951B
:102A700087954A95D1F78C3724E19207A105B105D6
:102A800028F469E070E00E94AA3127C08A50974D6F
:102A9000AF4FBF4F6627782F892F9A2F25EF38E247
:102AA00041E050E00E94D23169017A01CA01B901C6
:102AB0000E9480319B01AC01C701B6010E948031A8
:102AC000BB27A92F982F872F009721E0A207B105D8
:102AD00011F0BC0102C06FEF7FEF70938B00609329
:102AE0008A00FF90EF90DF90CF9008950895269A86
:102AF00086E30E94091582E28093800089E1809339
:102B000081008FEF9FEF90938700809386000C9455
:102B1000C3132EB1342F309523233EB1432B3FB73F
:102B2000F894FC01680F791FE617F70789F0819187
:102B300098E04EB9000000C087FF2EB9880F000052
:102B400000C000C000C02EB900C09A9591F7ECCF2C
:102B50003FBF08952DB1242B2DB99B01220F331FA8
:102B6000620F731F0E94891587EC90E00197F1F7BF
:102B700000C00000089544E00C94AA150F931F9321
:102B8000CF93DF93C62FD42F022FFC01828188239D
:102B9000C9F060937E010E945D2690937D01809331
:102BA0007C0180E28C0F883008F050C0C77081E053
:102BB00001C0880FCA95EAF7DF91CF911F910F915D
:102BC0000C94021B10917E01161330C080917C0181
:102BD00090917D010E946926883C910538F5C0E2FC
:102BE000CD0F1D17B9F080E2810F883040F41770C7
:102BF00081E001C0880F1A95EAF70E94091BC830CE
:102C000048F481E09D2F977001C0880F9A95EAF7EC
:102C10000E94021B802F0E94EF1AC830B8F4D770B0
:102C200081E001C0880FDA95EAF70AC080E28C0FD4
:102C3000883060F4C77081E001C0880FCA95EAF758
:102C4000DF91CF911F910F910C94091BDF91CF91D0
:102C50001F910F9108959C01CB01233F4CE5340750
:102C6000F9F078F4283DFCE53F07B9F0293D4CE543
:102C7000340711F1273D3C4531F526E241EE61EE86
:102C80001EC0253FFCE53F0799F070F0263F3C450C
:102C9000D1F427E245EE66EE12C027E245EE0EC003
:102CA00026E241EE60EE0BC027E245EE64EE07C07F
:102CB00026E241EE62EE03C028E241E065EE0E94AA
:102CC000BE1580E00895FC018281882319F01092DE
:102CD0007E01089581E00895CF93DF93EC01FB011D
:102CE0008281882309F41FC1C230FCE5DF0708F4A4
:102CF0001BC1C6319CE5D90738F09E012A5F3C45CF
:102D00002930310508F010C10E94852490938B0270
:102D100080938A02C031ECE5DE0709F4C3C008F0F5
:102D200041C0C8308CE5D80709F49AC0F0F4C4302B
:102D3000ECE5DE0709F487C068F4C2308CE5D807FB
:102D400009F477C0C330DC4509F0E3C080918A0202
:102D5000826076C0C630ECE5DE0709F46EC008F08C
:102D60007BC080918A0288606BC0CC308CE5D8072C
:102D700009F485C068F4CA30ECE5DE0709F474C0D4
:102D800008F079C00E94D81D80918A02806858C0DE
:102D9000CE308CE5D80709F476C008F07FC080916A
:102DA0008A028BC0CB3FECE5DE0709F44FC018F573
:102DB000C3318CE5D80709F47DC078F4C131ECE566
:102DC000DE0709F473C0C231DC4509F0A2C00E94DD
:102DD000D81D80918A028F7733C0C5318CE5D80722
:102DE00009F472C008F486C0CA3FDC4509F091C0FE
:102DF00080918B023EC0CF3FFCE5DF0709F45FC046
:102E000058F4CD3F9CE5D90709F444C008F43FC00D
:102E100080918B0282602DC0C130FDE5DF0709F48F
:102E200075C008F45DC0C230DD4509F072C080E0B5
:102E30006EC080918A02816003C080918A028061A5
:102E400080938A0266C080918A0211C080918B02B1
:102E5000826080938B025DC080918A028062F0CF95
:102E600080918A028064ECCF80918A0288608460BD
:102E7000E7CF8160EECF80918A028E7FE1CF809193
:102E80008A028D7FDDCF80918A02877FD9CF8091A2
:102E90008B0218C080918B028D7FDBCF80918A02DC
:102EA0008F7ECECF80918A028F7DCACF80918A0299
:102EB0008F7BC6CF80918A02877F8B7FC1CF809125
:102EC0008B028D7F8E7FC5CF80918A0282FB222765
:102ED00020F991E0922790FB82F990FB83F9B0CF23
:102EE00080918B02982F909591708E7F892B90FB0B
:102EF00081F9AFCF0E94D81D80918A0287FB2227DB
:102F000020F991E0922790FB87F99ACF81E00E9407
:102F10001D2580918A0290918B020E9496240E9426
:102F2000D81D80E001C081E0DF91CF91089590939A
:102F30008401809383010895E0918301F0918401DD
:102F4000309721F00190F081E02D099480E0089500
:102F5000EF92FF921F93CF93DF93FC01A091830127
:102F6000B0918401109709F442C080912201882316
:102F700041F080918A0287FF04C08081818385E0CF
:102F80008083EF011296ED91FC911397CE01099584
:102F90008091120282FF2BC080FF04C08AEC98E06F
:102FA0000E94070618E084ECE82E88E0F82E809155
:102FB000120280FF0BC088811F928F93FF92EF92C5
:102FC0000E94A0060F900F900F900F901150219625
:102FD0001111EDCF8091120280FF09C082EC98E0C0
:102FE000DF91CF911F91FF90EF900C940706DF9136
:102FF000CF911F91FF90EF900895E0918301F091A0
:103000008401309739F022E0DC012C930480F581B3
:10301000E02D099408952091810130918201821759
:10302000930771F09093820180938101E091830175
:10303000F0918401309721F00680F781E02D09940A
:10304000089520917F01309180018217930771F0DC
:103050009093800180937F01E0918301F09184013E
:10306000309721F00084F185E02D0994089585B70B
:10307000806885BF85B7806885BF089508950895E5
:103080000C943F1808950C9442180E9437180E941F
:103090003E180C94401881E008950E9454260E9426
:1030A000D70A0E94DD260E94C3130E94EE110C94E1
:1030B0004318CF93C82F8091120282FF1EC080FF59
:1030C00004C083EE98E00E9407068091120280FF00
:1030D0000CC01F92CF938EED98E09F938F930E9428
:1030E000A0060F900F900F900F908091120280FF1A
:1030F00004C08CED98E00E9407068C2FCF910C94B1
:10310000FE067F928F929F92AF92BF92CF92DF92F4
:10311000EF92FF920F931F93CF93DF93CDB7DEB75C
:103120002A970FB6F894DEBF0FBECDBF0E94360BB4
:103130000E944B18811111C08FEF89838A831B82F3
:103140000E945D268160782F9D838C8349815A81FE
:103150006B818D810E9435194FC036E8832E31E096
:10316000932E00E010E0702E802F0E94870A6C01E1
:10317000F401A190B1904F01A826B926A114B10481
:1031800031F40F5F1F4F0430110569F7D5CF8091DF
:10319000120281FD0E94900A90E0EE24E394F12C4B
:1031A00097012A213B21232B09F19E837F82CE2088
:1031B000DF2091E0CD2809F490E098870E945D26F9
:1031C0008160782F9A8789874E815F8168858A859B
:1031D0000E943519000F111FF801EA57FE4F808138
:1031E0009181E826F926F182E08206C09F5FEE0C0D
:1031F000FF1C9C30A9F6C5CF0E949D120E94761537
:103200000E94F128109185010E949C171817C9F09F
:103210000E949C17809385012A960FB6F894DEBF12
:103220000FBECDBFDF91CF911F910F91FF90EF9017
:10323000DF90CF90BF90AF909F908F907F900C9435
:1032400059182A960FB6F894DEBF0FBECDBFDF9196
:10325000CF911F910F91FF90EF90DF90CF90BF9093
:10326000AF909F908F907F900895CF93DF93CDB7CD
:10327000DEB72B970FB6F894DEBF0FBECDBF4F83DE
:10328000588769877A878B87DE01119686E0FD0172
:1032900011928A95E9F785E0FE01379601900D922B
:1032A0008A95E1F749815A816B817C818D819E816C
:1032B0000E9482202B960FB6F894DEBF0FBECDBFC2
:1032C000DF91CF910895FC01808191810E944E236E
:1032D0000895882309F41AC18238C1F40E949C170A
:1032E00081FD14C169E380911001909111010E9448
:1032F000A9250E94D9232FEF81EE94E02150804030
:103300009040E1F700C0000069E319C08338F9F488
:103310000E949C1780FDFAC063E580911001909196
:1033200011010E94A9250E94D9232FEF81EE94E07C
:10333000215080409040E1F700C0000063E580919B
:103340001001909111010E94B4250C94D923843866
:10335000C1F40E949C1782FDD9C067E480911001DE
:10336000909111010E94A9250E94D9232FEF81EE8F
:1033700094E0215080409040E1F700C0000067E4F5
:10338000DECF9CEF980F913A40F4682F80911001A6
:10339000909111010E94A925D8CF90E2980F983002
:1033A00050F4877091E001C0990F8A95EAF7892F50
:1033B0000E949023CACF9BE5980F933070F4853A12
:1033C00029F0863A31F083E890E005C081E890E08A
:1033D00002C082E890E00C940B1898E5980F9731A2
:1033E00008F08EC0883A09F445C0893A09F445C00E
:1033F0008A3A09F445C08B3A09F445C08C3A09F47D
:1034000045C08B3B09F445C08C3B09F445C08D3A5F
:1034100009F445C0803B09F445C08E3A09F445C023
:103420008F3A09F445C0813B09F445C0823B09F459
:1034300045C0833B09F445C0843B09F445C0853B46
:1034400009F445C0863B09F445C0873B09F445C0F3
:10345000883B09F445C0893B09F445C08D3B09F41C
:1034600045C08E3B09F445C08A3B09F445C080E065
:1034700090E044C082EE90E041C089EE90E03EC012
:103480008AEE90E03BC085EB90E038C086EB90E0A0
:1034900035C083EB90E032C084EB90E02FC087EB27
:1034A00090E02CC08CEC90E029C08DEC90E026C020
:1034B00083E891E023C08AE891E020C082E991E0AE
:1034C0001DC084E991E01AC081E292E017C083E256
:1034D00092E014C084E292E011C085E292E00EC056
:1034E00086E292E00BC087E292E008C08FE690E0AF
:1034F00005C080E790E002C08AE292E00C942118B7
:10350000803F20F00E9477270C9464280895882338
:1035100009F464C0823879F40E949C1781FF5EC070
:1035200069E380911001909111010E94A9250E94E8
:10353000D92369E310C08338B1F40E949C1780FF3F
:103540004DC063E580911001909111010E94A92561
:103550000E94D92363E580911001909111010E948E
:10356000B4250C94D923843879F40E949C1782FFE7
:1035700035C067E480911001909111010E94A92546
:103580000E94D92367E4E7CF9CEF980F913A10F49B
:10359000682FE1CF90E2980F983050F4877091E057
:1035A00001C0990F8A95EAF7892F0E949623D9CFF7
:1035B0009BE5980F933020F480E090E00C940B187A
:1035C00098E5980F973120F480E090E00C94211852
:1035D000803F20F00E94DF270C9464280895CF9349
:1035E000C82F0E946919C93349F42FEF87EE93E081
:1035F000215080409040E1F700C000008C2FCF9117
:103600000C94871A882321F00E9490230C94D923CC
:103610000895882321F00E9496230C94D9230895BD
:10362000BF92CF92DF92EF92FF920F931F93CF93AF
:10363000DF937C01062FC72FFC01158112951F70A7
:10364000D281D1110E94AD230E948623882379F074
:10365000DD2369F080E2800F883048F082E00E942C
:1036600024240E94862391E0B82EB92601C0B12CF3
:10367000CC2EC2948FE0C822D12CF601E659FF4F20
:103680000C94F4318C2F807FCF70882311F0C29579
:10369000C07FDD2399F0CC2309F4CFC180E2800FF5
:1036A000883010F0011104C08C2F0E94902303C0B9
:1036B0008C2F0E94A0230E94D923BFC1802F0E947B
:1036C000871ACC2309F402C280E2800F883010F000
:1036D000011104C08C2F0E94962303C08C2F0E94DE
:1036E000A6230E94D923F2C18C2F807FCF70803215
:1036F00011F0C295C07F002319F00130C9F022C03B
:10370000DD2371F0112341F0113031F40E94C02308
:103710008C2B0E94C623DAC10E94C0238C2B1DC0B3
:10372000112319F0113009F4D1C10E94CF2325C013
:10373000DD2321F0163008F0C9C10EC0153008F0A5
:10374000C5C11BC0DD2361F0112331F0F701858174
:1037500080FF73C18F7085838C2F0E94021BB6C1BE
:10376000112359F0093309F079C1FFEF27EE83E007
:10377000F15020408040E1F76FC18C2F0E94091B5F
:10378000A5C18C2F86958695837090E0009719F0DF
:10379000019761F09BC1DD2321F0802F9C2F937056
:1037A00002C080E090E00E940B189BC1DD2321F055
:1037B000802F9C2F937002C080E090E00E9421181F
:1037C00090C1DD23F9F0053F51F0063F71F0043F51
:1037D000A9F4809184029091850281600BC0809150
:1037E000840290918502826005C08091840290914C
:1037F000850284609093850280938402802F0E94CA
:1038000077271EC0053F51F0063F71F0043FA9F431
:1038100080918402909185028E7F0BC080918402FA
:10382000909185028D7F05C08091840290918502E0
:103830008B7F9093850280938402802F0E94DF27E4
:103840000E9464284EC18C2F837009F049C0D111A9
:1038500044C1402F429546954770440F440F602F56
:103860006F70862F90E0A0E0B0E0042E04C0880FB7
:10387000991FAA1FBB1F0A94D2F704FF10C00FE0C4
:1038800010E020E030E004C0000F111F221F331FA2
:103890004A95D2F7009510952095309503C000E029
:1038A00010E09801C695C695C370D0E0BC01CD016B
:1038B000602B712B822B932BC230D10559F0C33072
:1038C000D10559F0219719F00E94C72106C10E9425
:1038D000B52103C10E94D92100C10E94B321FDC0BE
:1038E000DD2319F08C2F817001C08695882309F49F
:1038F000F4C0402F429546954770440F440F602F07
:103900006F70862F90E0A0E0B0E0042E04C0880F16
:10391000991FAA1FBB1F0A94D2F704FF10C00FE023
:1039200010E020E030E004C0000F111F221F331F01
:103930004A95D2F7009510952095309503C000E088
:1039400010E09801C695C695C370D0E0BC01CD01CA
:10395000602B712B822B932BC230D10559F0C330D1
:10396000D10559F0219719F00E948D22B6C00E940E
:103970007B22B3C00E949F22B0C00E94EE21ADC046
:10398000CF70DD2339F08C2F0E941422802F0E94EB
:10399000021BA3C0802F0E94091B8C2F0E9435227E
:1039A0009CC0023F01F128F4003F41F0013FA1F02B
:1039B00040C0033FF9F0043F39F13BC0DD2341F043
:1039C000153008F083C08C2F8F710E945A227EC060
:1039D000163008F07BC0F7CFDD2339F08C2F8F71C4
:1039E0000E94142273C0DD23C9F38C2F8F710E94B3
:1039F00035226CC0DD2329F08C2F8F710E94FF21AE
:103A000065C00E94FA2162C0DD2349F0CF718C2F7E
:103A10000E94142263E08C2F0E940F2457C081E083
:103A20000E942424123008F451C082E00E94242411
:103A30004DC0DD2331F0112389F2802F0E946919D6
:103A400045C0112391F2093349F49FEFE7EEF3E00B
:103A50009150E040F040E1F700C00000802F0E944C
:103A6000871A34C04C2F4F70602FC7010E949D07EA
:103A70000E94262136C0D11134C0CF70D0E0C230B0
:103A8000D10599F03CF4209769F02197F9F40E9450
:103A90001C1427C0C430D10571F054F02597B1F43F
:103AA00080E00AC00E94E4131CC00E94901419C058
:103AB0000E94AC1416C084E00E94031512C04C2F63
:103AC0004F70602FC7010E94A0070BC028E0C21AE8
:103AD000D10884E0C816D10420F40E949C170E94EB
:103AE000FE06BB20D1F00E94822380FD16C0F701A4
:103AF00012820E947C230E941422C7010E94971DFB
:103B00000E947C23DF91CF911F910F91FF90EF9046
:103B1000DF90CF90BF900C943522DF91CF911F9111
:103B20000F91FF90EF90DF90CF90BF9008950F938B
:103B30001F93CF93DF93EC01888199812B813C8186
:103B4000232BB9F09F3F11F48F3F99F0CE010E94D3
:103B50001707882371F0688179818A810E9459232F
:103B60008C010E94B1220E94B221B801CE010E94B4
:103B7000101BDF91CF911F910F9108950E94AD23EB
:103B80000E94BD230E94D9230E948C290E94642890
:103B900080E090E00E940B1880E090E00C942118E7
:103BA00080911001909111010E94BF250C94BE1DBF
:103BB0000E949D230C94D01DE92FE295EF70F0E058
:103BC0003297EE30F105B0F4E658FF4F0C94F43123
:103BD000803F91F018F4883E68F40EC0843F51F4A1
:103BE0000BC0883E48F0813F29F406C093FB88272C
:103BF00080F9089580E0089581E008950E944E23A1
:103C00000E94DC1D0895CF93DF9300D000D01F9257
:103C1000CDB7DEB70F900F900F900F900F90DF9100
:103C2000CF910895CF93DF9300D000D000D0CDB7CF
:103C3000DEB726960FB6F894DEBF0FBECDBFDF917C
:103C4000CF9108951F93CF93DF93C0918F0116E01A
:103C500080919001C81799F0D0E01C9FF0011D9F42
:103C6000F00D1124EF56FE4F408151816281738126
:103C7000848195810E94121E2196C770E9CFDF9141
:103C8000CF911F9108954091C1015091C20160915F
:103C9000C3017091C4018091C5019091C6010C943B
:103CA000121E8091C60182958F7009F054C08091D8
:103CB000C301882309F44FC080918F01A091900126
:103CC0006091C1017091C2014091C4015091C50140
:103CD000B6E08A1709F43FC090E041155105C1F1E3
:103CE0007F3F11F46F3FA1F1B89FF001B99FF00D34
:103CF0001124EF56FE4F218172132AC020816213D6
:103D000027C02281211124C0238134812417350743
:103D100010F421503109241B350B283C3105C0F427
:103D20002091C6012F7020612093C60126E0289FB4
:103D3000F001299FF00D1124EA56FE4F80818F700B
:103D40008061808381EC91E00E94971D0C94221E7B
:103D500001968770BECF0895CF92DF92EF92FF92C7
:103D60000F931F93CF93DF93CDB7DEB762970FB654
:103D7000F894DEBF0FBECDBF8C0185E0F801DE01F7
:103D80001D9601900D928A95E1F7D8014C911196FC
:103D90005C91119712966C9112971396CD90DC90CE
:103DA00014973091C1017091C2018091C40190912A
:103DB000C501009709F46BC17F3F19F43F3F09F437
:103DC00066C1E090C301EE2009F4C0C02091C60195
:103DD000C816D90628F0F601E81BF90BCF0104C07C
:103DE000809590958C0D9D1DFF24F394883C910542
:103DF00078F0F12C207F09F0C6C07C2DD98AC88AC2
:103E000089890E94031E81EC91E00E94971DB1C038
:103E1000822F807F09F046C0751314C0341312C07E
:103E2000611110C02F7020612093C6010E94431EB3
:103E300081EC91E00E94971D8091C601D8011596F2
:103E40008C932EC0CD2819F15F3F11F44F3FF9F04C
:103E5000F62E61111CC080918F012091900136E0F7
:103E6000821709F45AC090E0389FF001399FF00D95
:103E70001124EF56FE4F7181571306C0708147130E
:103E800003C07281711103C001968770E9CFF62ECD
:103E9000662309F427C18091C60181608093C60121
:103EA000F12C20C1751308C0341306C0611104C081
:103EB0008091C601D801C3C04D875E878D859E85E0
:103EC0006A8B0E94FE1D6A898823E1F16623D1F185
:103ED0002091C601822F82958F7090E0029774F036
:103EE0008091C1019091C20198878F831986DB86EA
:103EF000CA862C87CE0107960E94971D86E0F8019E
:103F0000A1ECB1E001900D928A95E1F70E94511E5B
:103F10000E94431EFF24F394E5C04D875E878D8584
:103F20009E850E944E23292F22952F7030E022304B
:103F300031050CF0CBC09F7009F0C5C0805E8830A1
:103F400008F4D0C0C8010E94971DE4CFC816D90656
:103F500008F453C0F601E81BF90BCF01883C91052A
:103F600008F450C0F12C7C2DD98AC88A89890E9416
:103F7000031EE1ECF1E086E0DF011D928A95E9F78E
:103F80000E94431EAFC0751314C0341312C06111D8
:103F900010C08091C601F8018583C8010E94971D59
:103FA00086E0E1ECF1E0DF011D928A95E9F7FE2C55
:103FB00099C04D875E878D859E856A8B0E94FE1D08
:103FC0006A89882309F4BECF662309F4BBCF209108
:103FD000C601822F82958F7090E002970CF48ECFED
:103FE0008091C1019091C2019A8389831B82DD82F5
:103FF000CC822E83CE0101967FCF809590958C0D3B
:104000009D1DACCFF62E662309F49CCF75132EC0F0
:1040100034132CC02091C60120FD1FC0822F829531
:104020008F70D9F0D80115962C9315978F3049F0E1
:104030008F5F982F9295907F822F8F70892B159686
:104040008C93C8010E94971D86E0F801A1ECB1E0B5
:1040500001900D928A95E1F793CF86E0F801A1ECEB
:10406000B1E001900D928A95E1F73CC04D875E87E3
:104070008D859E850E94FE1D811140CF8091C601D5
:1040800081608093C601C8010E94971D2BC06623E2
:1040900009F458CF4D875E878D859E850E94FE1D51
:1040A000F82E882309F44ECF86E0F801A1ECB1E0A8
:1040B00001900D928A95E1F781EC91E00E946319DD
:1040C0000E94511E5DCF811139CF0CC024303105C3
:1040D0000CF038CF9F7009F431CFF8019581907FB3
:1040E00009F02CCF8F2D62960FB6F894DEBF0FBE6D
:1040F000CDBFDF91CF911F910F91FF90EF90DF9097
:10410000CF9008951F93CF93DF93CDB7DEB72C9751
:104110000FB6F894DEBF0FBECDBF4F8358876987B7
:104120007A878B879C87CE0107960E94AC1E8823D6
:1041300069F08F8198852A853B85232BF1F19F3F7C
:1041400009F063C08F3F09F060C037C086E0FE0110
:104150003796DE01119601900D928A95E1F76F81F5
:104160007885EA85FB85309741F17F3F11F46F3FF9
:1041700021F12091900130E0C901019687709927C3
:1041800040918F0150E08417950709F447C0698377
:104190007A83FD83EC8396E0929FD001939FB00DCC
:1041A0001124AF56BE4FFE01319601900D929A95A3
:1041B000E1F7809390010E94221E16E080918F010A
:1041C000909190018917C1F1189FC00111248F5659
:1041D0009E4F0E94AC1E882379F1E0918F011E9FB3
:1041E000F0011124EF56FE4F4081518162817381AD
:1041F000848195810E94121E80918F0190E001962A
:104200008770992780938F01D9CF4F815885698511
:104210007A858B859C850E94121ECFCF0E94D81D67
:104220001092900110928F01E1ECF1E086E0DF0145
:104230001D928A95E9F7C1CF2C960FB6F894DEBF90
:104240000FBECDBFDF91CF911F910895EF92FF92E6
:104250000F931F93CF93DF938C01892B09F46CC0CC
:10426000F12CEE24E394E8012196F801849184373F
:1042700040F4843008F051C0813081F0823019F16F
:104280005BC0853709F444C0A8F19CE7980F9037CC
:1042900008F052C08F770E94871A41C00E5F1F4FEF
:1042A000FE01C49180E28C0F883048F4C7708E2DD7
:1042B00001C0880FCA95EAF70E94B02314C08C2F62
:1042C0000E9469192DC00E5F1F4FFE01C49180E24C
:1042D0008C0F883058F4C7708E2D01C0880FCA9596
:1042E000EAF70E94B6230E94D9231AC08C2F0E949D
:1042F000871A16C00E5F1F4FFE01C491CC2381F0B8
:104300008FE99FE00197F1F700C00000C150F6CFA0
:104310000E5F1F4FFE01F49003C00E9469198E01C9
:104320008F2D882309F49FCFEFE9FFE03197F1F754
:1043300000C000008150F5CFDF91CF911F910F9108
:10434000FF90EF90089508950C94A3210E94A4215A
:104350006093E9017093EA018093EB019093EC0183
:104360000C94BE1D08950C94A6210F931F930091E9
:10437000E9011091EA012091EB013091EC01602BF1
:10438000712B822B932B1F910F910C94A6210F93CD
:104390001F930091E9011091EA012091EB01309106
:1043A000EC0160237123822393231F910F910C94BE
:1043B000A6210F931F930091E9011091EA0120912A
:1043C000EB013091EC0160277127822793271F9121
:1043D0000F910C94A62108950C94EB210E94EC21DE
:1043E0006093E5017093E6018093E7019093E80103
:1043F0000C94BE1D60E070E0CB010C94EE210F9395
:104400001F9341E050E060E070E08A019B0104C02E
:10441000000F111F221F331F8A95D2F7C901B8015F
:104420001F910F910C94EE210F931F9341E050E0E8
:1044300060E070E004C0440F551F661F771F8A9527
:10444000D2F78091E5019091E601A091E701B0914A
:10445000E8018A019B01082B192B2A2B3B2BC90150
:10446000B8011F910F910C94EE210F931F9341E01F
:1044700050E060E070E004C0440F551F661F771FD6
:104480008A95D2F740955095609570958091E50199
:104490009091E601A091E701B091E8018A019B01AA
:1044A000082319232A233B23C901B8011F910F9127
:1044B0000C94EE210F931F9341E050E060E070E018
:1044C00004C0440F551F661F771F8A95D2F780914D
:1044D000E5019091E601A091E701B091E8018A0120
:1044E0009B01082719272A273B27C901B8011F91DB
:1044F0000F910C94EE210F931F930091E501109101
:10450000E6012091E7013091E801602B712B822BAD
:10451000932B1F910F910C94EE210F931F930091F9
:10452000E5011091E6012091E7013091E801602357
:104530007123822393231F910F910C94EE210F93EB
:104540001F930091E5011091E6012091E701309160
:10455000E80160277127822793271F910F910C9400
:10456000EE2108952CE0929F800D1124A82FA6958E
:10457000A695A695877051E001C0550F8A95EAF778
:1045800085E0A89FD001112420E030E070E0F9011F
:10459000EA0FFB1FE953FE4F4081CB01022E02C000
:1045A000969587950A94E2F78170992781958427DB
:1045B0008523842780832F5F3F4F2530310539F7CE
:1045C00008952CE0929F800D1124682F66956695C2
:1045D0006695982F977085E0689FB001112440E0A0
:1045E00050E080E0FA01E60FF71FE953FE4F20810B
:1045F00030E0092E02C0369527950A94E2F7217023
:104600003327042E01C0220F0A94EAF7822B4F5F52
:104610005F4F4530510531F70895BF92CF92DF9239
:10462000EF92FF920F931F93CF93DF938C01C09073
:10463000E901D090EA01E090EB01F090EC0180916B
:10464000E5019091E601A091E701B091E801C82A47
:10465000D92AEA2AFB2ACFE1D0E0D701C6010C2EE5
:1046600004C0B695A795979587950A94D2F780FFD1
:1046700007C0BC2EB8018C2F0E94BB07019719F40C
:10468000219758F7B12C8B2DDF91CF911F910F916E
:10469000FF90EF90DF90CF90BF900895CF93DF937E
:1046A000EC010E940D23BE010E94BB07DF91CF9158
:1046B00008951F93CF93DF93EB0190918E0199237F
:1046C00021F0CB010E944E2313C0882349F0CB0177
:1046D0000E940D23182F682FCE010E94B22204C021
:1046E000CB010E94E122182FBE01812F0E94BB073F
:1046F000DF91CF911F9108958091ED01859585956A
:10470000859508958091ED01877008959091ED0150
:10471000977081E009F480E0089580911102089576
:1047200090911102892B80931102089580959091A8
:1047300011028923809311020895109211020895A5
:1047400090911002892B809310020895809590918A
:104750001002892380931002089510921002089588
:1047600090910F02892B80930F020895809590916C
:104770000F02892380930F02089510920F0208956B
:104780008091EE01089508950C94C3239091EE0159
:10479000981721F08093EE010C94C4230895809122
:1047A000EE01882329F01092EE0180E00C94C423DE
:1047B0000895E0911001F091110180911102808320
:1047C000E0911001F0911101908180911002892BEC
:1047D0008083E0911001F0911101908180910F028E
:1047E000892B80838091EE01882381F0E091100174
:1047F000F09111019081892B80838091100190911B
:1048000011010E94222581110E94CF238091100165
:10481000909111010C94A81708950C940C2498E021
:10482000899F90011124262B2093ED010E941422D0
:104830008091ED018595859585950C940D241092B8
:10484000ED0180E00C940D242091ED0180958223F0
:104850008093ED01982F977079F430E0482F082E5F
:10486000000C550B2417350739F0859585958595EE
:104870000E9435220C941F2408959093690180931F
:10488000680108958295982F9C7C392F369536952E
:10489000282F237344E0249FC0011124932F982BC9
:1048A000292F2A7A2695892F8575880F822B0895BE
:1048B0001F93CF93DF931F92CDB7DEB799830E94EA
:1048C0004224182F9981892F0E944224212F30E001
:1048D000322F2227A901482BCA010F90DF91CF91D7
:1048E0001F91089580E090E00E942F3221E08C3EDD
:1048F0009E4F09F020E0822F089582E090E00C9412
:10490000213283E090E00C942132CF9384E090E058
:104910000E942132C82F81E290E00E9421322C2F88
:1049200030E0A901582BCA01CF910895CF93C92F28
:10493000682F84E090E00E9435326C2F81E290E095
:10494000CF910C94353286E090E00C942132682FA0
:1049500086E090E00C943532AB01BC018FE090E032
:104960000C944732AB01BC0183E190E00C944732D8
:1049700060E070E0CB010C94B22460E070E0CB0109
:104980000E94AC240C94B8246CEE7EEF80E090E0A2
:104990000E94533260E082E090E00E94353260E095
:1049A00083E090E00E9435321092E9011092EA0112
:1049B0001092EB011092EC0160E084E090E00E9424
:1049C000353260E081E290E00E94353260E085E0BF
:1049D00090E00E94353260E086E090E00E9435323F
:1049E0006FEF87E090E00E94353240E050E0BA017E
:1049F00088E090E00E94473260E08DE090E00E9405
:104A0000353240E050E0BA0188E190E00E94473240
:104A100060E087E190E00E94353240E050E0BA016A
:104A20008CE190E00E94473260E080E290E00E94DA
:104A300035320C94BD240C94C424682F8EE090E091
:104A40000C943532FC01329680912201882331F09A
:104A500080918A0287FF02C09EE101C096E080E05B
:104A6000915028F021912223D9F38F5FF9CF089537
:104A70009C01FC0132969FEF80E04191461789F03E
:104A80009F3F19F4411101C0982F8F5F8630A9F71D
:104A90009F3F39F0F901E90FF11D97FDFA95628307
:104AA00008950895FC01329608962081261301C0CE
:104AB00010823196E817F907C1F70895262F269539
:104AC000269526952E3170F4FC01E20FF11D6770DA
:104AD00021E030E001C0220F6A95EAF78281282B9D
:104AE000228308958091120280FF0CC01F926F9361
:104AF00084E199E09F938F930E94A0060F900F90FE
:104B00000F900F900895262F2695269526952E31E5
:104B100078F4FC01E20FF11D677021E030E001C084
:104B2000220F6A95EAF7209582812823228308952F
:104B30008091120280FF0CC01F926F9386EF98E065
:104B40009F938F930E94A0060F900F900F900F904D
:104B5000089520912201222329F020918A0227FD25
:104B60000C945E250C94382520912201222329F0F3
:104B700020918A0227FD0C9483250C9452252091C4
:104B80002201FC013296222331F080918A0287FFB4
:104B900002C08EE101C086E0DF011D928A95E9F72F
:104BA000089508950C94D1250E94D22580919002F9
:104BB000843061F11092130220E488E190E00FB696
:104BC000F894A895809360000FBE2093600080E069
:104BD0000E941A1580E00E94FE060E94D22583B72B
:104BE000817F846083BF83B7816083BF7894889519
:104BF00083B78E7F83BF0FB6F894A895809160002D
:104C0000886180936000109260000FBE089508953F
:104C10000895CF930E9407260E94360B0E94082613
:104C2000C0E08C2F0E94870A892B29F4CF5FC43003
:104C3000C1F780E001C081E0CF91089508950C9400
:104C40001E260E94D81D0E94C3130E949C170E941A
:104C5000FE060C941F261F920F920FB60F9211247E
:104C60008F939F93AF93BF9380911302811113C0D1
:104C70008091860290918702A0918802B09189026A
:104C80004196A11DB11D8093860290938702A09347
:104C90008802B0938902BF91AF919F918F910F903D
:104CA0000FBE0F901F90189582E084BD93E095BDD4
:104CB0009AEF97BD80936E0008952FB7F894809176
:104CC000860290918702A0918802B09189022FBF3D
:104CD0000895CF92DF92EF92FF920F931F932FB719
:104CE000F8944091860250918702609188027091F9
:104CF00089022FBF6A017B01EE24FF248C0120E092
:104D000030E0C016D106E206F30610F44150510916
:104D10009A01281B390BC9011F910F91FF90EF9049
:104D2000DF90CF90089578941F920F920FB60F9254
:104D300011248F939F93AF93BF938091860290919C
:104D40008702A0918802B09189020196A11DB11D30
:104D50008093860290938702A0938802B093890281
:104D6000BF91AF919F918F910F900FBE0F901F90A9
:104D7000189581E08093E00080E28093D800109243
:104D8000C9008FE19EE40197F1F700C0000087E0C1
:104D900090EBDC018093990290939A02A0939B027E
:104DA000B0939C029CE088E10FB6F894A89580939C
:104DB00060000FBE90936000FFCF0E9472248111AB
:104DC00002C00E941B250E947D24809312020E9433
:104DD000852490938B0280938A020E948124682FFD
:104DE00070E080E090E00C94B3218091170280FF86
:104DF0000BC06091150185E0689FB0011124759585
:104E00006795759567952BC081FF09C06091150165
:104E100085E0689FB00111247595679520C082FFD9
:104E200007C06091150185E0689FB001112417C08B
:104E3000909116029923D1F060911401961788F78A
:104E40002091150185E0289F90011124929FA001D7
:104E5000939F500D112470E0CA010E94BE3160384A
:104E6000710540F46115710539F002C065E070E02C
:104E7000862F08958FE7089581E0089580911702A5
:104E800080FF08C06091130170E075956795759576
:104E9000679521C081FF06C06091130170E0759590
:104EA000679519C082FF04C06091130170E010C0C3
:104EB000909116029923C1F0609112019617A0F704
:104EC00080911301899FC001112470E00E94BE31BE
:104ED0006038710528F46115710521F0862F089559
:104EE0008FE7089581E0089561E070E0F4CF803F9E
:104EF00021F40E94F526819504C0813F29F40E9487
:104F0000F52680931B020895823F21F40E94F52626
:104F1000819504C0833F29F40E94F52680931A02EC
:104F20000895893F19F40E943E2705C08A3F31F455
:104F30000E943E27819580931C0208958B3F21F4A7
:104F40000E943E27819504C08C3F29F40E943E2791
:104F500080931D020895843F21F48091190281609D
:104F600017C0853F21F480911902826011C0863FED
:104F700021F48091190284600BC0873F21F4809155
:104F80001902886005C0883F31F480911902806160
:104F90008093190208958D3F21F48091170281605A
:104FA0000BC08E3F21F480911702826005C08F3FB5
:104FB00029F4809117028460809317020895803F3E
:104FC00039F480911B0287FF6CC010921B0269C0EC
:104FD000813F29F480911B021816BCF362C09091A6
:104FE0001A02823F29F497FF5CC010921A0259C03E
:104FF000833F19F41916CCF354C0893F41F48091D2
:105000001C0218160CF04DC010921C024AC08A3FB8
:1050100029F480911C0287FF44C0F6CF8B3F39F4FE
:1050200080911D0287FF3DC010921D023AC08C3F47
:1050300029F480911D021816BCF333C0843F21F47B
:10504000809119028E7F17C0853F21F4809119024B
:105050008D7F11C0863F21F4809119028B7F0BC098
:10506000873F21F480911902877F05C0883F31F482
:10507000809119028F7E8093190213C08D3F21F415
:10508000809117028E7F0BC08E3F21F48091170212
:105090008D7F05C08F3F29F4809117028B7F80930D
:1050A000170280911A0281110EC080911B0281119A
:1050B0000AC080911C02811106C080911D028111DD
:1050C00002C01092160208958091120283FF7EC0E2
:1050D00089E599E00E940706809119021F928F933B
:1050E00084E599E09F938F930E94A00682E599E062
:1050F0000E94070680911A02282F082E000C330BFD
:105100003F938F938FE499E09F938F930E94A00623
:105110008DE499E00E94070680911B02282F082E3B
:10512000000C330B3F938F938AE499E09F938F9306
:105130000E94A00688E499E00E94070680911C0264
:10514000282F082E000C330B3F938F9385E499E0B2
:105150009F938F930E94A00683E499E00E94070624
:1051600080911D02282F082E000C330B3F938F9344
:1051700080E499E09F938F930E94A0068DE399E0CD
:105180000E940706809116021F928F938AE399E08E
:105190009F938F930E94A00688E399E00E940706E0
:1051A000809117021F928F9385E399E09F938F93CD
:1051B0000E94A00682E399E00E9407068DB79EB781
:1051C0004C960FB6F8949EBF0FBE8DBF88E192E05B
:1051D0000E94FD170E945D26909315028093140291
:1051E00008951F93CF93DF9380911402909115023D
:1051F0000E946926AC0190911602992321F020911A
:10520000160130E006C0209117018AE0289F900126
:1052100011244217530708F47BC080911A02C091F1
:105220001B02D0911C0210911D02811107C0C111F7
:105230006BC0D11169C0111167C06AC09F3F19F0DE
:105240009F5F90931602181624F40E94F52680930F
:105250001A0280911A0287FF05C00E94F5268195E7
:1052600080931A021C1624F40E94F52680931B02D8
:1052700080911B0287FF05C00E94F52681958093CF
:105280001B0230911A023323E1F020911B022223EA
:10529000C1F045EB3403C0011124892F990F990BFC
:1052A000009709F481E080931A0235EB2303C001D3
:1052B0001124892F990F990B009709F481E08093AD
:1052C0001B021D1624F40E943E2780931C0280912D
:1052D0001C0287FF05C00E943E27819580931C0217
:1052E000111624F40E943E2780931D0280911D0216
:1052F00087FF05C00E943E27819580931D02DF91A4
:10530000CF911F910C9464289F3F09F099CFA1CFB2
:10531000DF91CF911F910895E8E1F2E086E0DF018F
:105320001D928A95E9F710921602109217020895BD
:105330008091410208959FB7F894109220029FBF78
:1053400090919002943009F057C09091E9009F70BD
:105350003091EC00232F217030FD20E8922B23E0C8
:105360002093E9002091EB0020FF43C02091EE0044
:1053700027FF3FC020911E02222321F02091E80048
:1053800025FF37C010921E0226E03091E80035FD5F
:1053900015C030919002343061F53091EB0035FD4D
:1053A00028C0215021F481E080931E0222C0EFE941
:1053B000FFE03197F1F700C00000E7CF8093F100E4
:1053C0008091E80085FD0AC08091E80080FFFCCF55
:1053D0008091E8008E778093E80006C08FB7F8943C
:1053E00021E0209320028FBF9F709093E90080E01E
:1053F00008959F709093E9008FEF08950F931F9386
:10540000CF93DF9300D01F92CDB7DEB78C010E94FF
:10541000C82C823011F0843021F584E089831B830D
:105420000A8382E08093E9008FEF9091E800815039
:1054300095FD06C095ED9A95F1F700008111F5CF25
:105440008091E80085FF0DC040E050E063E070E02F
:10545000CE0101960E94E52C8091E8008E77809322
:10546000E8000F900F900F90DF91CF911F910F9157
:105470000895CF93DF9300D01F92CDB7DEB7209170
:105480009002243031F523E02983805891099B83D1
:105490008A8382E08093E9008FEF9091E800815049
:1054A00095FD06C095ED9A95F1F700008111F5CFB5
:1054B0008091E80085FF0DC040E050E063E070E0BF
:1054C000CE0101960E94E52C8091E8008E778093B2
:1054D000E8000F900F900F90DF91CF910895CF9338
:1054E000DF93EC010E94C82C823011F08430F9F473
:1054F00082E08093E9009FEF8091E800915085FD64
:1055000006C085ED8A95F1F700009111F5CF8091E5
:10551000E80085FF0CC040E050E066E070E0CE019E
:105520000E94E52C8091E8008E778093E800DF915F
:10553000CF910895CF93DF93EC010E94C82C823065
:1055400011F08430D9F580912201882339F08091BF
:105550008A0287FF03C060E282E002C068E081E067
:105560008093E9008FEF9091E800815095FD06C08F
:1055700095ED9A95F1F700008111F5CF8091E80043
:1055800085FF1CC080912201811105C040E050E0E0
:1055900068E070E003C070E040E050E0CE010E949F
:1055A000E52C8091E8008E778093E80080E2FE0190
:1055B000A1E2B2E001900D928A95E1F7DF91CF91DF
:1055C000089581EA99E00E94070680918F02811177
:1055D00009C00E947A2E0E94D72E8091E20084603A
:1055E0008093E20008958DE999E00E9407061092E9
:1055F0008F02089589E999E00C94070685E999E0FE
:105600000C94070681E999E00E9407060C94212674
:1056100020911F022F5F822F62E30E949031992315
:1056200019F020931F02089510921F02809120020A
:10563000882371F180919002843041F58091E900D6
:105640008F702091EC00922F917020FD90E8892BB3
:1056500093E09093E9009091EB0090FF14C090913B
:10566000EE0097FF10C09091E80095FF03C01092E4
:10567000F100F9CF9091E80090FF05C09091E8000B
:105680009E779093E8008F708093E900109220023B
:10569000089542E061EC81E00E94F42D42E261EC69
:1056A00082E00E94F42D42E261EC83E00C94F42D40
:1056B00080919202833009F460C030F4813071F03F
:1056C000823009F499C008958A3009F485C08B307E
:1056D00009F46BC0893009F0A7C020C08091910205
:1056E000813A09F0A1C08091E800877F8093E800AB
:1056F0008091950290919602892B21F460E281E2DB
:1057000092E003C060E080E090E070E00E94302D05
:105710008091E8008B778093E80008958091910252
:10572000813209F081C08091950290919602029792
:1057300008F07AC08091E800877F8093E80080912C
:10574000E80082FD05C0809190028111F8CF6CC005
:105750002091F3008091F20090E0922B029729F4BF
:105760008091F1008B7F813021F48091F100809352
:1057700041028091E8008B7753C080919102813A79
:1057800009F052C08091950290919602892B09F000
:105790004BC08091E800877F8093E8008091E8000B
:1057A00080FFFCCF8091220136C08091910281322E
:1057B000D9F58091950290919602892BA9F5809157
:1057C000E800877F8093E8000E94292E8091930251
:1057D000809322010C94D81D80919102813221F591
:1057E0008091E800877F8093E8000E94292E8091B5
:1057F000940280934202089580919102813AA1F42B
:105800008091E800877F8093E8008091E80080FF26
:10581000FCCF809142028093F1008091E8008E7766
:105820008093E8000C94292E089584B7877F84BF65
:105830000FB6F894A895809160008861809360000D
:10584000109260000FBE90E080E80FB6F89480934D
:105850006100909361000FBE0E9445180E947A2E4D
:105860000E94D72E8091E20084608093E2008BE951
:1058700099E20E943D2478940E9465310E944D185F
:1058800088E191E00E94971780E899E00E9407065E
:1058900080919002853089F48CE799E00E94070698
:1058A0000E94D42580918E02882391F30E940926BC
:1058B000882371F30E94CF2CEBCF0E948118E8CF90
:1058C0000C94622C292F332723303105C9F064F45E
:1058D0002130310581F02230310509F049C08BE5D6
:1058E00090E025ED39E048C02132310521F1223226
:1058F000310571F13DC082E190E020E33AE03CC027
:1059000099278130910571F02CF4892B89F5E1ED0F
:10591000F9E00DC08230910541F0039749F5E5EAC1
:10592000F9E005C0EFEBF9E002C0EBEAF9E08491A1
:1059300090E09F0121C063307105D0F4660F771F9E
:10594000FB01EF59FE4F2081318189E090E014C0C6
:105950006330710568F4FB01EE0FFF1FE55AFE4F3F
:1059600020813181FB01E85AFE4F808190E004C024
:1059700080E090E020E030E0FA0131832083089558
:1059800080919002843011F081E0089582E00895C2
:1059900080914302811102C00C94C02C089580E1D3
:1059A00089BD82E189BD09B400FEFDCF8091D80098
:1059B0008F7D8093D8008091E00082608093E0002A
:1059C0008091E00081FDFCCF0895CF92DF92EF92AD
:1059D000FF920F931F93CF93DF93EC018B016A012A
:1059E0000E94482E811133C0C114D10439F0F60150
:1059F00080819181081B190BC80FD91FE12CF12C54
:105A00000115110519F18091E80085FD16C08091FE
:105A1000E8008E778093E800C114D10449F0F601C4
:105A200080819181E80EF91EF182E08285E00FC04D
:105A30000E94482E882321F30AC089918093F100A7
:105A400001501109FFEFEF1AFF0ADACF80E0DF9172
:105A5000CF911F910F91FF90EF90DF90CF9008951D
:105A600020919702309198022617370748F0611568
:105A7000710539F42091E8002E772093E80001C0E9
:105A8000B90140E061157105A9F12091900222232E
:105A900009F443C0253009F442C02091E80023FDF9
:105AA00040C02091E80022FD32C02091E80020FF94
:105AB000E9CF4091F3002091F20030E0342BFC015B
:105AC000CF016115710559F02830310540F48191FD
:105AD0008093F100615071092F5F3F4FF1CF41E09A
