:100000000C949E050C94E5050C94E5050C94E5050F
:100010000C94E5050C94E5050C94E5050C94E505B8
:100020000C94E5050C94E5050C94642F0C94363083
:100030000C9493260C94E5050C94E5050C94E505C9
:100040000C94E5050C94E5050C94E5050C94E50588
:100050000C94E5050C94FB260C94E5050C94E50541
:100060000C94E5050C94E5050C94E5050C94E50568
:100070000C94E5050C94E5050C94E5050C94E50558
:100080000C94E5050C94E5050C94E5050C94E50548
:100090000C94E5050C94E5050C94E5050C94E50538
:1000A0000C94E5050C94E5050C94E505AA1BAA1B28
:1000B000DC1BDC1B291C491CCE1DCE1D8B1C281DE6
:1000C000391D391D9A1DA31DCE1DC71D501E501E62
:1000D000621E621E591E621E621E621E501E501E4D
:1000E0005E1E621E621E5E1EA330CA30BC31CA3064
:1000F000BC3116313931BC318F319E312B001400A7
:100100001A000800150017001C0018000C0012004F
:1001100013004900290004001600070009000A0026
:100120000B000D000E000F003343D95CE1001D00F1
:100130001B000600190005001100100036003700F2
:1001400052003800E000E300E20001514C442C0072
:1001500000002A000251500051004F0035001E02DD
:100160001F0220022102220223022402250226026B
:10017000270201000100AA00A900A8000100010057
:100180002F0030003100340001000100E1000100C7
:1001900001000100010001002D002E0001000100FE
:1001A0004B00E500E000010001000100010001003A
:1001B0000000010001004A004E004D0001003A001D
:1001C0003B003C003D003E003F004000410042003B
:1001D000430001000100C25CC35CC55CC65C010059
:1001E00001002D002E004400450031000100BF5CDD
:1001F000C05CC95CCA5C0100010001000100010093
:100200004B0001000100010001000100010001009C
:100210000000010001004A004E004D0000000000F7
:1002200000000000000000000000000000000000CE
:100230000000000000004A004B004E004D0000008E
:100240005000510052004F0000000000E10000008B
:10025000000000000000000000000000000000009E
:100260000000E500E00000000000000000000000C9
:1002700000000000000000000000E400005C01003D
:10028000010001000100010000005F00600061004A
:100290000000000001000100010001000100010058
:1002A00000005C005D005E00000001000100010034
:1002B0000100010001000100000059005A005B002C
:1002C000000001000100010000000000000001002A
:1002D000000062000000000000000000444542559C
:1002E000473A2064697361626C65642E0A00444574
:1002F0004255473A20656E61626C65642E0A000AB9
:10030000002530313662003A200025303258000A8C
:10031000722F632030313233343536373839414229
:10032000434445460A007267626C696768742074CA
:10033000696D65722064697361626C652E0A007272
:1003400067626C696768742074696D657220656E98
:1003500061626C65642E0A007267626C696768741A
:100360002073657420687376205B4E4F454550526C
:100370004F4D5D3A2025752C25752C25750A007288
:1003800067626C696768742073657420687376208F
:100390005B454550524F4D5D3A2025752C25752CF7
:1003A00025750A007267626C6967687420726169FA
:1003B0006E626F7720736574206873763A202564C7
:1003C0002C25642C25642C25750A007267626C69E3
:1003D0006768742064697361626C65205B45455091
:1003E000524F4D5D3A207267626C696768745F6353
:1003F0006F6E6669672E656E61626C65203D2025B3
:10040000750A007267626C6967687420656E616264
:100410006C65205B454550524F4D5D3A20726762D6
:100420006C696768745F636F6E6669672E656E617D
:10043000626C65203D2025750A007267626C6967F1
:10044000687420746F67676C65205B454550524F38
:100450004D5D3A207267626C696768745F636F6EA6
:100460006669672E656E61626C65203D2025750AA0
:10047000007267626C69676874206D6F6465205BE9
:100480004E4F454550524F4D5D3A2025750A00723A
:1004900067626C69676874206D6F6465205B4545B1
:1004A00050524F4D5D3A2025750A007267626C69A3
:1004B0006768745F696E6974207267626C696768E7
:1004C000745F636F6E6669672E6D6F6465203D2093
:1004D000302E2057726974652064656661756C748E
:1004E0002076616C75657320746F20454550524FBE
:1004F0004D2E0A007267626C696768745F696E6985
:1005000074206565636F6E666967206973206E6F1E
:100510007420656E61626C65642E0A007267626C9D
:10052000696768745F696E6974207374617274219D
:100530000A007267626C696768745F696E6974202B
:1005400063616C6C65642E0A007267626C6967682F
:10055000745F636F6E6669672E7370656564203DB6
:100560002025640A007267626C696768745F636F54
:100570006E6669672E76616C203D2025640A0072E4
:1005800067626C696768745F636F6E6669672E7314
:100590006174203D2025640A007267626C69676897
:1005A000745F636F6E6669672E687565203D2025F0
:1005B000640A007267686C696768745F636F6E666F
:1005C00069672E6D6F6465203D2025640A0072679F
:1005D000626C696768745F636F6E6669672E656ECB
:1005E00061626C65203D2025640A007267626C6957
:1005F0006768745F636F6E66696720454550524F48
:100600004D3A0A0000047F3F1F64321464321478AC
:100610003C1E1E140A052223252628292A2C2D2FAC
:100620003032333536383A3B3D3E40424345474908
:100630004A4C4E5051535557595A5C5E606264663D
:1006400068696B6D6F71737577797B7D7F81838549
:1006500087898A8C8E90929496989A9C9E9FA1A34B
:10066000A5A7A8AAACAEAFB1B3B4B6B8B9BBBCBE6F
:10067000BFC1C2C3C5C6C7C9CACBCCCDCED0D1D2EB
:10068000D2D3D4D5D6D7D7D8D9D9DADADBDBDBDCED
:10069000DCDCDCDCDDDDDDDDDCDCDCDCDCDBDBDB99
:1006A000DADAD9D9D8D7D7D6D5D4D3D2D2D1D0CEF9
:1006B000CDCCCBCAC9C7C6C5C3C2C1BFBEBCBBB9FE
:1006C000B8B6B4B3B1AFAEACAAA8A7A5A3A19F9E7C
:1006D0009C9A98969492908E8C8A89878583817F44
:1006E0007D7B79777573716F6D6B69686664626025
:1006F0005E5C5A5957555351504E4C4A49474543F1
:1007000042403E3D3B3A3836353332302F2D2C2A8D
:10071000292826252322FFAA7F55406261636B6C3E
:100720006967687420737465703A2025750A0062E1
:1007300061636B6C696768742064697361626C657E
:100740000A006261636B6C6967687420656E616240
:100750006C650A006261636B6C6967687420746F12
:1007600067676C653A2025750A006261636B6C6986
:100770006768742064656372656173653A202575E6
:100780000A006261636B6C6967687420696E6372EA
:10079000656173653A2025750A00000101010101B8
:1007A000010101010202020202020202020303032A
:1007B00003030303030404040404040405050505FA
:1007C00005060606060607070707070808080809BA
:1007D0000909090A0A0A0B0B0B0C0C0C0D0D0D0E66
:1007E0000E0E0F0F0F1010111111121213131414FB
:1007F000151516161717181819191A1A1B1B1C1D70
:100800001D1E1E1F202021222223242425262627C8
:100810002829292A2B2C2D2D2E2F303132323334FA
:1008200035363738393A3B3C3D3E3F404142434400
:1008300045464748494A4C4D4E4F505153545556E2
:1008400058595A5B5D5E5F616264656668696B6C8E
:100850006D6F7072737577787A7B7D7E8082838509
:1008600087888A8C8E8F91939596989A9C9EA0A249
:10087000A3A5A7A9ABADAFB1B3B5B7BABCBEC0C253
:10088000C4C6C9CBCDCFD1D4D6D8DBDDDFE2E4E717
:10089000E9EBEEF0F3F5F8FAFDFF0A0025303258E7
:1008A00020006B6579626F6172645F7265706F7250
:1008B000743A20000A0025303258006B6579626F67
:1008C0006172645F7365745F6C65643A200064658F
:1008D0006C5F6B65795F6269743A2063616E27743F
:1008E0002064656C3A20253032580A006164645FE8
:1008F0006B65795F6269743A2063616E2774206169
:1009000064643A20253032580A00290A002575000F
:100910002F002575005D2800256400200025640057
:10092000200025640020002564007C00253032581A
:10093000006D6F7573656B6579205B62746E7C7892
:100940002079207620685D287265702F61636C299C
:100950003A205B005B735D004B6579626F61726486
:100960002073746172742E0A005B575D005B535DE7
:10097000005B525D005B445D005B435D000403303F
:1009800000000012034E004900550020004D006990
:10099000006E006900000010034B00420044004656
:1009A0000061006E00730000000403090409025B8B
:1009B00000030100A0FA090400000103010100097D
:1009C00021110100012240000705810308000A09E6
:1009D000040100010300000009211101000122C0EF
:1009E000000705820320000A090402000203000038
:1009F00000092111010001222200070583032000C4
:100A00000107050303200001120110010000000886
:100A1000EDFE60600100010203010631FF0974A1CF
:100A2000010975150026FF009520750881020976D9
:100A3000150026FF00952075089102C005010902E6
:100A4000A10185020901A100050919012905150067
:100A50002501950575018102950175038101050147
:100A6000093009311581257F9502750881060938FD
:100A70001581257F950175088106050C0A38021538
:100A800081257F950175088106C0C005010980A1F7
:100A90000185031A81002A830016010026030095B0
:100AA0000175108100C0050C0901A10185041A011E
:100AB000002A9C02160100269C02950175108100F7
:100AC000C005010906A1018505050719E029E715FB
:100AD0000025019508750181020507190029EF1508
:100AE00000250195F0750181020508190129059578
:100AF0000575019102950175039101C00501090673
:100B0000A101050719E029E71500250195087501E0
:100B100081029501750881010507190029FF15005B
:100B200026FF00950675088100050819012905951D
:100B30000575019102950175039101C011241FBE35
:100B4000CFEFDAE0DEBFCDBF04B603FE27C0809151
:100B5000990290919A02A0919B02B0919C028730D9
:100B6000904BA740B04BD1F41092990210929A0288
:100B700010929B0210929C0214BE84B7877F84BFA0
:100B80000FB6F894A895809160008861809360000A
:100B9000109260000FBEE0E0F8E3099511E0A0E0DC
:100BA000B1E0E4EBF5E602C005900D92A836B1077E
:100BB000D9F722E0A8E6B1E001C01D92A939B20739
:100BC000E1F70E947D2C0C94D8320C940000FF9326
:100BD000EF93E0916801F0916901309709F0099570
:100BE000EF91FF910895FC018591803011F0EFDFC6
:100BF000FBCF0895FF27E0E230E247FF0CC04195AC
:100C000097FF09C0EDE26095709580959095611D04
:100C1000711D811D911D27FF02C0219530E350E217
:100C2000AA27660F771F881F991FAA1FA41710F005
:100C3000A41B63955A95A9F7AA3008F0A95FA05D97
:100C4000AF93F395611571058105910541F7ED327B
:100C500011F4EF93F395F21718F43F93F395FBCF4C
:100C60008F91B5DFFA95E1F70895E991F9918591B2
:100C7000803021F0853219F0AADFF9CF089520E005
:100C8000E89455915532C1F3503311F4689455915D
:100C90005A3348F4505390F3220F022E220F220FA2
:100CA000200D250FF4CF0EF421958991999153369B
:100CB00019F3533729F1533559F1BC018827992786
:100CC000E8945C3621F48991999168945591543651
:100CD00039F446EF7EF077FF0DC08FEF9FEF0AC02B
:100CE00055374AE039F0583540E121F0523642E0BC
:100CF00009F00895FF93EF937DDFEF91FF91B7CF58
:100D0000FF93EF93FC0181918030B9F360DFFBCF5B
:100D1000FF93EF9368DFF1CFDF93CF93CDB7DEB7CB
:100D20002596A3DFCF91DF9108956E9A769A0C9461
:100D3000970C81E0089581E008950C949B061F9321
:100D4000CF93DF9300D000D01F92CDB7DEB7498399
:100D50005A8320919E0189819A81211112C06623B4
:100D600049F00E947523182F682F89819A810E946B
:100D70001A2303C00E944923182F69817A81812F89
:100D800004C00E94752369817A810F900F900F90A3
:100D90000F900F90DF91CF911F910C94B509FC013A
:100DA000408151816281738184810C949F060E94ED
:100DB000DA24811102C00E9483250E9435170C9409
:100DC00095060E9434170C94990C08950C94E5062E
:100DD0000C94E60608950E94401E0E94EA062FEF3A
:100DE00084E39CE0215080409040E1F700C0000087
:100DF0000C9421270F931F93CF93DF93EC010E9454
:100E0000CF068C01BE010E949D06882331F1BE01F0
:100E1000C8010E94B417882301F10B3C8CE5180728
:100E2000F1F008F047C0033C8CE51807F9F048F5ED
:100E300006318CE5180708F091C102308CE51807DF
:100E400008F051C001158CE5180709F064C1CA818A
:100E5000CC2309F480C20E94EB06C0E07CC2CA81A8
:100E6000CC2309F478C20E94840FF7CFCA81CC2327
:100E700009F471C20E94F5238272C9F00E94DE1348
:100E8000ECCFCA81073C8CE5180709F49CC108F037
:100E9000ACC1053C8CE5180709F49BC108F09FC163
:100EA000CC2309F458C20E94F523827239F30E94C0
:100EB000D113D3CF033D8CE5180709F4AFC108F473
:100EC000B3C10D3D8CE5180709F414C208F419C22A
:100ED0000E3D8CE5180709F438C2C8018A5F9C45AD
:100EE000099708F01BC18A81882309F417C10E9461
:100EF000DA24811102C00E9483250E94ED24909380
:100F00008B0280938A0200318CE5180709F4C3C074
:100F100008F041C008308CE5180709F49AC0F0F4D5
:100F200004308CE5180709F487C068F402308CE5BA
:100F3000180709F477C003301C4509F0E3C080911D
:100F40008A02826076C006308CE5180709F46EC00C
:100F500008F07BC080918A0288606BC00C308CE501
:100F6000180709F485C068F40A308CE5180709F4FD
:100F700074C008F079C00E94401E80918A02806887
:100F800058C00E308CE5180709F476C008F07FC011
:100F900080918A028BC00B3F8CE5180709F44FC083
:100FA00018F503318CE5180709F47DC078F4013198
:100FB0008CE5180709F473C002311C4509F0A2C082
:100FC0000E94401E80918A028F7733C005318CE5E4
:100FD000180709F472C008F486C00A3F1C4509F0DE
:100FE00091C080918B023EC00F3F8CE5180709F439
:100FF0005FC058F40D3F8CE5180709F444C008F4AD
:101000003FC080918B0282602DC001308DE51807B2
:1010100009F475C008F45DC002301D4509F072C0C6
:1010200080E06EC080918A02816003C080918A0254
:10103000806180938A0266C080918A0211C080918B
:101040008B02826080938B025DC080918A028062F5
:10105000F0CF80918A028064ECCF80918A02886010
:101060008460E7CF8160EECF80918A028E7FE1CFEE
:1010700080918A028D7FDDCF80918A02877FD9CFD0
:1010800080918B0218C080918B028D7FDBCF809185
:101090008A028F7ECECF80918A028F7DCACF8091C7
:1010A0008A028F7BC6CF80918A02877F8B7FC1CFD8
:1010B00080918B028D7F8E7FC5CF80918A0282FBCB
:1010C000222720F991E0922790FB82F990FB83F987
:1010D000B0CF80918B02982F909591708E7F892B45
:1010E00090FB81F9AFCF0E94401E80918A0287FB5E
:1010F000222720F991E0922790FB87F99ACF81E08F
:101100000E94852580918A0290918B020E94FE2484
:101110000E94401EA2CE01301C4539F0CE01DF9165
:10112000CF911F910F910C949906CA81CC2309F499
:1011300012C180912202C82FC095C170C0FB80F9F6
:1011400080932202CC2329F08EEE92E00E94F305D8
:1011500084CE8CED92E00E94F305FDC006318CE553
:10116000180731F50E94F523282F8A81409110013C
:1011700050911101882379F02A7A91E009F490E0E6
:1011800090936A01911102C069E201C065E3CA014E
:101190000E9411260AC080916A01811102C069E291
:1011A00001C065E3CA010E941C260E94412455CE5D
:1011B000023C1C4509F0B2CFCA81CC2309F4CBC054
:1011C0000E9497144ACECC2309F4C5C00E946A112C
:1011D00044CECC2309F4BFC00E944E113ECECC2396
:1011E00009F4B9C00E945B1138CE093C8CE51807A0
:1011F00031F4CC2309F4AFC00E9488112ECE0A3CF2
:101200001C4530F4CC2309F4A6C00E94791125CEE8
:10121000CC2309F4A0C00E9497111FCECA81CC2311
:1012200009F499C088E10EC0CA810F3C8CE518070B
:1012300061F080F50D3C8CE51807A9F4CC2309F486
:101240008AC081E00E94E11308CECC2309F483C058
:101250000E947C0F863028F00E947C0F883008F4B2
:1012600026CE86E0EFCF0E3C1C4530F4CC2309F4AB
:1012700072C00E94950FF1CDCC2309F46CC00E947E
:101280007C0F823028F00E947C0F853008F40FCE4E
:1012900082E0D8CF013D8CE5180771F4CC2309F426
:1012A0005AC00E947C0F8F3028F00E947C0F84313E
:1012B00008F4FDCD8FE0C6CF023D1C4570F4CC2371
:1012C00009F449C00E947C0F893028F00E947C0FED
:1012D0008E3008F4ECCD89E0B5CFCC23E1F10E944B
:1012E0007C0F853128F00E947C0F873108F4DFCD18
:1012F00085E1A8CFCA81CC2371F182E00E94272D1D
:10130000ACCD053D8CE5180729F4CA81CC2319F131
:1013100083E298CF053D8CE5180770F4CA81CC2391
:10132000D1F00E947C0F893128F00E947C0F82321C
:1013300008F4BDCD89E186CF0C3D1C4509F0EECE09
:10134000CA81CC2341F080E0D9CFCA81CC2319F0E7
:101350000E94832582CD8C2FDF91CF911F910F9119
:10136000089580E090E0089508959CE0799FF00151
:10137000112490E3899FE00DF11D1124E60FF11D6A
:10138000EE0FFF1FE450FF4F859194910895880F51
:10139000991FFC01E150FD4F859194910895CF93E1
:1013A000DF930E94B5090E94C00BEC01811521E575
:1013B000920708F042C0811560E5960708F02FC13A
:1013C000883E910500F5803E910508F0D5C1883A28
:1013D000910570F4853A910508F0A4C0813091051B
:1013E00009F4CAC108F47BC1049708F0C5C177C1EC
:1013F0008F3B910508F4A1C0803C910508F46FC1B2
:10140000805C9109FBC0C11580E3D80780F4C11549
:1014100090E2D90708F0F0C0C03FD10508F45FC1E1
:10142000CF3FD10511F008F0A7C1D065A5C1C11506
:1014300020E4D20708F0F0C0E5C0811569E5960701
:1014400060F5C11588E5D80708F035C1C11594E5E8
:10145000D90778F4C11523E5D20708F011C1C115E9
:1014600062E5D60708F0F6C0DC2FCC27C16FD06A42
:1014700083C1C11585E5D80708F418C1C11596E5E3
:10148000D90708F02CC18C2F0E94540C8F71C82FE3
:10149000D0E0DC2FCC27D0626FC18D3B2CE59207CA
:1014A00009F414C1E0F4CB3B8CE5D80709F408C17A
:1014B00008F009C1C1152AE5D20708F010C18C2F28
:1014C0008F700E94540C94E0D695C7959A95E1F7D9
:1014D000CF70D0E0DC2FCC27D069C82B4DC1803C29
:1014E0009C4509F4F9C0C13C8CE5D80760F4CE3BBB
:1014F0009CE5D90709F4EDC0CF3BDC4509F0EFC00E
:10150000C0E0D2ED39C1CE0190568115904208F06D
:10151000E6C08D2F8F710E94540CDD27D0628F7131
:10152000D82B2AC1853A910509F4DCC0863A910589
:1015300009F0DBC0C2E8D0E41FC1883A910509F484
:10154000D7C0893A910509F4D6C08A3A910509F4C1
:10155000D5C08B3A910509F4D4C08C3A910509F4B1
:10156000D3C08B3B910509F4D2C08C3B910509F4A3
:10157000D1C08D3A910509F4D0C0803B910509F4A2
:10158000CFC08E3A910509F4CEC08F3A910509F487
:10159000CDC0813B910509F4CCC0823B910509F493
:1015A000CBC0833B910509F4CAC0843B910509F483
:1015B000C9C0853B910509F4C8C0863B910509F473
:1015C000C7C0873B910509F4C6C0883B910509F463
:1015D000C5C0893B910509F4C4C08D3B910509F450
:1015E000C3C08E3B910509F4C2C08A3B910509F442
:1015F000C1C0C0E0D4E4C0C0CE019F700E94C70942
:10160000EC01BAC0CE019927D3FF03C0EC01D86C1E
:10161000B3C0EC01D06CB0C0DF70D06AADC08370D5
:1016200021E030E002C0220F331F8A95E2F73C68C8
:10163000CE0174E0969587957A95E1F78370382B03
:10164000CF70C695C69580E2C89FE0011124C22BD9
:10165000D32B92C04C2F4695469590E2499FA0010E
:101660001124C370DD2721E030E0C90102C0880FDA
:10167000991FCA95E2F7EC01C42BD52BDC687CC01E
:101680004C2F4695469580E2489FA0011124C370D7
:10169000DD2721E030E0C90102C0880F991FCA95FB
:1016A000E2F7EC01C42BD52BDA6866C0DC2FCC271F
:1016B000C46FD06A61C0DC2FCC27C06FD06A5CC019
:1016C000C0E0D4ED59C0C0E0D5ED56C0C0E0D1EDCA
:1016D00053C0C0E0D0ED50C0C0E0D3ED4DC0C0E07D
:1016E000D0E04AC0C1E8D0E447C0C3E8D0E444C079
:1016F000C2EED4E441C0C9EED4E43EC0CAEED4E4A4
:101700003BC0C5EBD4E438C0C6EBD4E435C0C3EB72
:10171000D4E432C0C4EBD4E42FC0C7EBD4E42CC073
:10172000CCECD4E429C0CDECD4E426C0C3E8D5E4A5
:1017300023C0CAE8D5E420C0C2E9D5E41DC0C4E98D
:10174000D5E41AC0C1E2D6E417C0C3E2D6E414C09F
:10175000C4E2D6E411C0C5E2D6E40EC0C6E2D6E4C7
:101760000BC0C7E2D6E408C0CFE6D4E405C0C0E7AA
:10177000D4E402C0CAE2D6E4CE01DF91CF9108954D
:101780008238910569F1B0F48133910509F46DC097
:1017900048F48932910509F463C08A32910509F44D
:1017A00069C008958533910509F455C089339105C1
:1017B000B9F00895833E910569F138F4803E9105B2
:1017C000B1F0823E910509F10895863E9105A9F197
:1017D000873E9105B9F1843E910509F064C023C0AC
:1017E00020918A0220FD4FC021FD4DC008958091B7
:1017F0008A0280FD44C080918B0280FF44C08091AA
:101800008A0284FD42C083EE4DC080918A0282FF2D
:1018100038C0F5CF80918A0282FD33C080918B025F
:1018200080FD31C0ECCF80918B0281FF32C080916E
:101830008A0284FD2AC087EE35C080918A0283FF28
:1018400026C0F5CF80918A0283FD21C080918B0252
:1018500081FD1FC0ECCF80918A0285FD1CC01DC098
:1018600080918A0285FD19C016C080918A0286FD8A
:1018700016C017C080918A0286FD13C010C089E38C
:1018800011C082EE0FC080EE0DC080E00BC086EE6E
:1018900009C084EE07C089E205C085E303C08AE27F
:1018A00001C081E390E0089590918A0292FF0DC0FB
:1018B000282F2871283019F4877F846006C0282FCC
:1018C0002471243011F48B7F886093FF0DC0282F82
:1018D0002871283119F4877E846106C0282F24716D
:1018E000243111F48B7E886120918B0220FF0DC082
:1018F000382F3871383019F4877F816006C0382F4F
:101900003171313011F48E7F886021FF0DC0282F96
:101910002871283119F4877E816106C0282F217132
:10192000213111F48E7E886194FD877E089508959B
:1019300008950C94980CE82FF0E0EE0FFF1FE55986
:10194000FE4F808191810895CF92DF92EF92FF92B6
:101950000F931F93CF93DF938FE093E00E94F305E3
:101960008BE6E82E81E0F82EC0E0D0E09AE0C92EA8
:1019700093E0D92E01E013E0DF93CF93DF92CF9273
:101980000E948C0687E093E00E94F305F7018191A5
:1019900091917F010E94C0249F938F931F930F9377
:1019A0000E948C068FEF92E00E94F30521968DB77E
:1019B0009EB708960FB6F8949EBF0FBE8DBFC43079
:1019C000D105D1F6DF91CF911F910F91FF90EF904C
:1019D000DF90CF900895AFE2B1E041E050E024E025
:1019E0002A0F8D91E82FE295EF70F0E031A18F7012
:1019F000BA0102C0660F771F8A95E2F7CB01962FD6
:101A00009095932391A392A1892B82A32A13E9CFC6
:101A1000A3E2B1E041E050E02CE02A0F8D91E82FE5
:101A2000E295EF70F0E031A18F70BA0102C0660F4D
:101A3000771F8A95E2F7CB01962F9095932391A378
:101A400092A1892B82A32A13E9CF109274011092DC
:101A5000730110926C0110926B011092760110923A
:101A6000750110926E0110926D0110927801109222
:101A700077011092700110926F0110927A0110920A
:101A80007901109272011092710184E00E94E10DBF
:101A90000C94D7065F926F927F928F929F92AF9233
:101AA000BF92CF92DF92EF92FF920F931F93CF934B
:101AB000DF930FE211E0A3E7B1E0612CEE24E394A1
:101AC000F12C5D018D909C90119711961C921E92A5
:101AD000E80189918E01E82FE295EF70F0E091A185
:101AE0008F70A70101C0440F8A95EAF7892F842BD4
:101AF00081A382A1542E5094852182A3D0EADA9545
:101B0000F1F783E2C82E81E0D82E80E090E0E60174
:101B100079906E01272D22952F7030E0E90168A1A0
:101B20002D913C91119770E0D72DDF7002C0759513
:101B30006795DA95E2F760FD08C0B701082E02C08C
:101B4000660F771F0A94E2F702C060E070E0262B70
:101B5000372B11963C932E9301968C309105B9F654
:101B600081A1D52DD823D1A382A1482B42A31296BF
:101B700081E0F501208131818216930609F480E02D
:101B8000682AF1E0AB37BF0709F09BCF262D44E070
:101B90006BE671E083E791E00E94E20D0E94E106AE
:101BA000862DDF91CF911F910F91FF90EF90DF90E5
:101BB000CF90BF90AF909F908F907F906F905F90ED
:101BC00008950895FF920F931F93CF93DF93F82EFC
:101BD000092F162FD72FC42F222349F081E080939D
:101BE0007D010E94C52690937C0180937B018091AA
:101BF0007D018823D9F080917B0190917C010E9426
:101C0000D126069798F0EF2DF02FA12FBD2F80E061
:101C100090E04C2F50E08417950734F421913191D6
:101C20002D933D930196F7CF10927D01DF91CF91D7
:101C30001F910F91FF900895AF92BF92CF92DF92C4
:101C4000FF920F931F93CF93DF93D62E372FE82F5A
:101C5000F0E0711106C0E656F84F6491762F862F9A
:101C600075C0C72FD0E0E656F84F2491F22E022F10
:101C700010E046E0649FC0011124EFEFF0E0BF01E7
:101C80000E941932AB016BEA6403C001659F900D9D
:101C900011248D0D911D8D0D911D982F990F890F78
:101CA000DF01AC1BBD0B0A9FB0010B9F700D1A9F8B
:101CB000700D1124972F839FD0011124AB2FBB27C8
:101CC0006F01CA1ADB0A0C9DD0010D9DB00D1C9D41
:101CD000B00D11245F01A81AB108AC9E6001AD9E41
:101CE000D00CBC9ED00C1124CD2DDD27EC1BFD0BA0
:101CF0000E9FE0010F9FD00D1E9FD00D1124ED2FE0
:101D00004230510591F04CF441155105E1F041305C
:101D10005105B9F4E22F2B2F16C04430510569F05C
:101D200044F04630510579F00CC0E22F272F9D2F4B
:101D30000AC0272F9F2DEB2F06C0E72F922F2D2FA4
:101D400002C0E72F9B2F6E2F722F892FDF91CF912B
:101D50001F910F91FF90DF90CF90BF90AF900895AB
:101D60000895CF93DF93762FE901682F842F0E9487
:101D70001C0E798368838A83DF91CF9108958091C7
:101D80005402282F269530E02115310519F4817071
:101D9000826005C02532310524F08170886480930B
:101DA0005402089588E090E00C949832CF93DF932A
:101DB00000D000D0CDB7DEB7AB01BC0149835A8358
:101DC0006B837C830E94BF0E49815A816B817C8129
:101DD00088E090E00F900F900F900F90DF91CF91DF
:101DE0000C94B632E4E5F2E083E0808311828FEF59
:101DF00082838383148260817181828193810C94B8
:101E0000D60E8091220280FF08C08BEE95E09F9352
:101E10008F930E948C060F900F908091220280FF7A
:101E20000FC08091540281701F928F938EEC95E0C9
:101E30009F938F930E948C060F900F900F900F909E
:101E40008091220280FF0FC08091540286951F92DC
:101E50008F9383EB95E09F938F930E948C060F9056
:101E60000F900F900F908091220280FF0EC0809102
:101E700055021F928F9389E995E09F938F930E945B
:101E80008C060F900F900F900F908091220280FF90
:101E90000EC0809156021F928F938FE795E09F931B
:101EA0008F930E948C060F900F900F900F9080914F
:101EB000220280FF0EC0809157021F928F9385E609
:101EC00095E09F938F930E948C060F900F900F9038
:101ED0000F908091220280FF0EC0809158021F92C5
:101EE0008F9389E495E09F938F930E948C060F90C7
:101EF0000F900F900F9008958091540280FF02C0C0
:101F00008695089580E0089580915802833018F4F2
:101F10008F5F8093580260915402709155028091B6
:101F20005602909157020C94D60E80915802882345
:101F300019F08150809358026091540270915502BB
:101F400080915602909157020C94D60E6091040134
:101F500070E08091540280FF0AC08091820123E0EA
:101F6000829FC0011124875A9D4F0C947E15809149
:101F7000810190910301891780F7E82FF0E09F011C
:101F8000220F331FE20FF31FE75AFD4F1182108219
:101F900012828F5FF0CF9091540290FF16C0909103
:101FA000810120910301921770F4E92FF0E0DF0125
:101FB000AA0FBB1FEA0FFB1FE75AFD4F8183608307
:101FC00042839F5FF0CF0C94A60F0895CF93DF93C9
:101FD00000D01F92CDB7DEB79091540290FF0AC097
:101FE0009E012F5F3F4F0E94B10E4B8169818A8114
:101FF0000E94CB0F0F900F900F90DF91CF9108951B
:10200000CF93DF93EC01EC81F0E0EA5EF94F44916D
:10201000E4E5F2E0628181810E94E60F8C818F5FAE
:102020008C83DF91CF910895CF93DF93EC01E4E5AA
:10203000F2E0438162818C810E94E60F8C818F5F88
:102040008C83DF91CF9108950F931F93CF93DF93EC
:1020500000D01F92CDB7DEB78C0180917E01811137
:102060000AC09E012F5F3F4F4FEF6FEF0E94B10EEE
:102070008A8180937E01F8018481813051F028F0BB
:10208000823061F440917E010AC080917E0140E07F
:1020900007C060917E0140E080E003C040E080E046
:1020A00060E00E94CB0FF801248130E0C901019665
:1020B00063E070E00E942D3284830F900F900F90A8
:1020C000DF91CF911F910F9108956F927F928F9220
:1020D0009F92AF92BF92CF92DF92EF92FF920F93B7
:1020E0001F93CF93DF9300D000D0CDB7DEB7182F6A
:1020F000D62E042FB22E9091540290FFB2C0E92F39
:10210000E695AE2FB0E0AD5CBE4F8C9180938A0116
:102110009E7F923061F49E012F5F3F4F812F0E947E
:10212000B10E4B8169818A810E94CB0F60C08230E1
:1021300019F4009157025BC0863019F410915502D2
:1021400056C08930D9F3893109F051C0E9518E2F39
:1021500080958170C82EE695F0E0EA5EF84FE59034
:10216000F490A12CFF2424EA822E23E0922E609189
:102170000201A616D0F56A2C712C6E9CC0016F9CD2
:10218000900D7E9C900D112470E00E941932812FD9
:10219000CC2011F0860F01C0861B9091220290FF87
:1021A00013C0FF92EF921F92CF921F928F931F92B4
:1021B000AF929F928F928C830E948C060FB6F894F8
:1021C000DEBF0FBECDBF8C8190918101690E711C65
:1021D0009301220F331F260D371D275A3D4F402FE5
:1021E0006D2D0E94B10EA394C2CF0E94A60F109332
:1021F0005502D092560200935702BB20E9F060913D
:1022000054027091550280915602909157020E949B
:10221000D60E8091220280FF24C0809157021F9227
:102220008F93809156021F928F93809155021F9237
:102230008F938FE793E00CC08091220280FF11C042
:102240001F920F931F92DF921F921F9388E593E0D6
:102250009F938F930E948C060FB6F894DEBF0FBE3B
:10226000CDBF0F900F900F900F90DF91CF911F91E6
:102270000F91FF90EF90DF90CF90BF90AF909F9025
:102280008F907F906F900895E4E5F2E09181282F80
:102290004381628188E0890F0C94651081E00C9481
:1022A0004411E4E5F2E09181282F4381628188EFB7
:1022B000890F0C94651081E00C945111E4E5F2E073
:1022C000628128E0620F08F46FEF282F438181813B
:1022D0000C94651081E00C945E11E4E5F2E06281FB
:1022E00028E0621B08F460E0282F438181810C9470
:1022F000651081E00C946D11E4E5F2E0438128E083
:10230000420F08F44FEF282F628181810C946510F1
:1023100081E00C947C11E4E5F2E0438128E0421B6B
:1023200008F440E0282F628181810C94651081E0DF
:102330000C948B1120E00C946510FF920F931F9367
:10234000CF93DF93EC01F12C0FEF10E060910201CD
:10235000F616E8F42091810130E02F0D311DC901FE
:10236000880F991F280F391F275A3D4F70E0C80169
:102370000E942D32962F8C81409157026091560217
:10238000F99E800D11240E94B10EF394DFCF0E94BC
:10239000A60F9A818C8190FF02C08F5F01C081508F
:1023A0008C83DF91CF911F910F91FF900895AF9291
:1023B000BF92CF92DF92EF92FF920F931F93CF9332
:1023C000DF93FC01828180FF02C00FEF01C001E0BA
:1023D00010E04EE0A42E80910201181708F043C0CF
:1023E000C12ED12C80918101E601C80FD11DCE01F3
:1023F000880F991FC80FD91FC75ADD4F198218823D
:102400001A8234E0E32EF12CB12C809180018B0DE7
:102410008F302CF06A2D0E940B32892F05C087FF68
:1024200003C090910201890F082E000C990BC81669
:10243000D90691F4809157028E9DA0018F9D500D79
:10244000112455954795559547959E0160915602E3
:10245000809155020E94B10EB00EF1E0EF1AF10822
:10246000A1F61F5FB8CF0E94A60F809180010130B6
:1024700031F4811102C080910201815007C090E0C7
:1024800001966091020170E00E942D3280938001DC
:10249000DF91CF911F910F91FF90EF90DF90CF9040
:1024A000BF90AF900895CF938091810190910301E7
:1024B000891770F4E82FF0E09F01220F331FE20F1D
:1024C000F31FE75AFD4F1182108212828F5FF0CF07
:1024D000C0E060910201C617B8F5EC2FF0E070E0A3
:1024E000CF010E942D3240918101480F80917F01E0
:1024F000082E000C990B50E0E817F907C4F0209162
:102500000101022E000C330B2E173F0784F09A01B5
:10251000220F331F240F351F275A3D4F409157027A
:1025200060915602809155020E94B10E0BC0FA01D3
:10253000EE0FFF1F4E0F5F1FFA01E75AFD4F11828A
:1025400010821282CF5FC5CF0E94A60F209100019A
:1025500080917F01820F80937F0190910101920F02
:102560009093010119165CF4082E000C990B409110
:10257000020150E041505109841795071CF0219544
:1025800020930001CF9108950F931F93CF93DF9372
:102590008C01FC0184819581019681709927958336
:1025A0008483C0E0D5E580910201C817F8F420913A
:1025B000810130E02C0F311DC901880F991F280FB0
:1025C000391F275A3D4F4C2F4695F801848195813C
:1025D000840F911D817040915702609156028D9F2A
:1025E000802D11240E94B10ECF5FDDCFDF91CF91FE
:1025F0001F910F910C94A60F0F931F93CF93DF930E
:10260000EC0100E010E080910201282F30E0021779
:10261000130724F5909181019801290F311DA9011B
:10262000440F551F240F351F275A3D4F869590E0C4
:102630004C81081719071CF4442331F002C04111E2
:1026400003C04091570201C040E060915602809162
:1026500055020E94B10E0F5F1F4FD5CF0E94A60FEB
:102660002C8130E02F5F3F4F217033272C83DF9187
:10267000CF911F910F91089560915402669570E07B
:102680004BE050E085E091E00E948332892B19F401
:1026900081E080938B010E94C526909384018093F2
:1026A00083018091220280FF08C08FE393E09F9313
:1026B0008F930E948C060F900F90089510928B01BB
:1026C0008091220280FF08C086E293E09F938F935F
:1026D0000E948C060F900F9008959091540290FFE5
:1026E00054C09170811102C0926006C0853210F012
:1026F000986402C0880F982B909354026623B1F01F
:102700006091540270915502809156029091570247
:102710000E94D60E8091220280FF1BC0809154023D
:1027200086951F928F938FE894E00BC080912202D0
:1027300080FF0FC08091540286951F928F9381E78E
:1027400094E09F938F930E948C060F900F900F90B0
:102750000F9060915402669570E04BE050E085E088
:1027600091E00E948332892B19F00E945E1302C00F
:102770000E943C1381E08093860140915702609152
:102780005602809155020C949A110895682F9091E9
:102790005402969581E0890F853208F081E00C940F
:1027A0006D1381E00C94C613682F90915402969596
:1027B0008FEF890F09F484E20C946D1381E00C947F
:1027C000D41361E00C946D13809154028160809366
:1027D00054028091220280FF0DC01F9281E08F93EE
:1027E00083E094E09F938F930E948C060F900F904C
:1027F0000F900F908091540286950C94E11360E045
:102800000C946D1380918901811161C08091220225
:1028100081608093220282E395E09F938F930E94D0
:102820008C06809122020F900F9080FF08C08CE1EF
:1028300095E09F938F930E948C060F900F900E94BB
:10284000DA24811110C08091220280FF08C084EF39
:1028500094E09F938F930E948C060F900F900E949C
:1028600083250E94F20E0E94D20E60935402709350
:10287000550280935602909357026E7FC1F4809167
:10288000220280FF08C08BEA94E09F938F930E94FE
:102890008C060F900F900E94F20E0E94D20E609351
:1028A00054027093550280935602909357020E94EF
:1028B000BF0E0E94010F10928B018091540280FF85
:1028C00003C086950E94FF1381E0809389010895DB
:1028D000809154028E7F80935402609154027091D3
:1028E000550280915602909157020E94D60E809117
:1028F000220280FF0FC08091540281701F928F933B
:102900008BEC93E09F938F930E948C060F900F9017
:102910000F900F900E945E132FEF80E792E02150FE
:1029200080409040E1F700C000000C94A60F809119
:10293000220280FF10C080915402809581701F9206
:102940008F938AE394E09F938F930E948C060F905D
:102950000F900F900F908091540280FD0C9468149A
:102960000C94E4130F931F93CF93DF9380918B010B
:10297000882309F48CC080918A01E0915402E69585
:10298000E81BE0938501823049F4F0E0EE5EF94FF8
:10299000E491CE2FD0E000E010E149C0863049F448
:1029A000F0E0E15FF94FE491CE2FD0E004E110E1D7
:1029B0003EC0893051F4E695F0E0E45FF94FE491D0
:1029C000CE2FD0E00DE911E132C08F3051F4E69501
:1029D000F0E0E75FF94FE491CE2FD0E007ED11E191
:1029E00026C0853149F4F0E0EA5FF94FE491CE2F3B
:1029F000D0E003E512E11BC0883181F0833239F465
:102A0000E4E0F6E0C591D49104E210E110C0843214
:102A100051F4C4EFD1E00CEF12E109C0C8EED3E0ED
:102A200004EC12E104C0C0EDD7E000EB1EE08091A1
:102A30008601882389F0109286010E94C5269E0196
:102A400020953095820F931F90938401809383018A
:102A500010928801109287018091830190918401E6
:102A60000E94D1268C179D0790F0E0918301F09190
:102A70008401CE0FDF1FD0938401C093830183E8CC
:102A800091E0F801DF91CF911F910F910994DF91AF
:102A9000CF911F910F9108952EB1342F309523239C
:102AA0003EB1432B3FB7F894FC01680F791FE6173E
:102AB000F70789F0819198E04EB9000000C087FFC8
:102AC0002EB9880F000000C000C000C02EB900C0A1
:102AD0009A9591F7ECCF3FBF08952DB1242B2DB9D6
:102AE0009B01220F331F620F731F0E944C1587EC4E
:102AF00090E00197F1F700C00000089544E00C94C5
:102B00006D150E94DA24811102C00E9483250E9463
:102B10000B2580938302282F26952695269530E055
:102B20002530310524F08770806280938302809184
:102B3000830280FF04C086958695869501C080E05B
:102B40000C94D81620918302822F869586958695BF
:102B5000482F50E04430510554F48F5F982F990F5F
:102B6000990F990F822F8770892B80938302809110
:102B700083028160809383020E940F25809122024C
:102B800080FF11C0809183028695869586951F925D
:102B90008F9382E897E09F938F930E948C060F900B
:102BA0000F900F900F908091830286958695869561
:102BB0000C94D81680918302982F969596959695A9
:102BC000A1F0915E990F990F990F8770892B8093CF
:102BD0008302887F91E009F490E08091830290FB6A
:102BE00080F9809383020E940F258091220280FF4A
:102BF00011C0809183028695869586951F928F934A
:102C00008AE697E09F938F930E948C060F900F9017
:102C10000F900F90809183028695869586950C94EF
:102C2000D8168091830280FD1FC08160809383024B
:102C3000813019F489E080938302809183020E949D
:102C40000F258091220280FF08C082E497E09F93C5
:102C50008F930E948C060F900F908091830286952F
:102C6000869586950C94D81608958091830280FFEE
:102C700014C08E7F809383020E940F2580912202D0
:102C800080FF08C08FE297E09F938F930E948C068D
:102C90000F900F9080E00C94D8160895CF93C091B8
:102CA0008302C1708091220280FF0CC01F92CF93DB
:102CB00084E597E09F938F930E948C060F900F906E
:102CC0000F900F90CC2319F0CF910C943516CF9123
:102CD0000C94111690918302892F8695869586957E
:102CE0008F5F8F719770853038F4880F880F880F49
:102CF000892B8093830202C0909383028091830288
:102D0000887F91E009F490E08091830290FB80F944
:102D1000809383020E940F258091220280FF11C0C0
:102D2000809183028695869586951F928F938BE17D
:102D300097E09F938F930E948C060F900F900F90B7
:102D40000F90809183028695869586950C94D8166F
:102D5000853008F084E0880F880F880F90918302F7
:102D60009770892B80938302887F91E009F490E02B
:102D70008091830290FB80F9809383020E940F254B
:102D8000809183028695869586950C94D816E82FB7
:102D9000E295EF70F0E032A1282F2F7081E090E0F3
:102DA00001C0880F2A95EAF78095832382A30895AE
:102DB000CF92DF92EF92FF92853030F4811105C0FF
:102DC000909180009F7D04C084E09091800090628B
:102DD00090938000282F30E0AFEFBFEF0E94693260
:102DE000DC01CB0142E0B695A795979587954A956A
:102DF000D1F78C3724E19207A105B10528F469E0E9
:102E000070E00E94193227C08A50974DAF4FBF4FD4
:102E10006627782F892F9A2F25EF38E241E050E07E
:102E20000E94413269017A01CA01B9010E94EF3161
:102E30009B01AC01C701B6010E94EF31BB27A92F4E
:102E4000982F872F009721E0A207B10511F0BC0150
:102E500002C06FEF7FEF70938B0060938A00FF904A
:102E6000EF90DF90CF9008950895269A86E30E9410
:102E7000C71682E28093800089E1809381008FEF02
:102E80009FEF90938700809386000C9481150F9399
:102E90001F93CF93DF93C62FD42F022FFC01828183
:102EA0008823C9F060938E010E94C52690938D01FE
:102EB00080938C0180E28C0F883008F050C0C7707E
:102EC00081E001C0880FCA95EAF7DF91CF911F9189
:102ED0000F910C946A1B10918E01161330C08091D3
:102EE0008C0190918D010E94D126883C910538F586
:102EF000C0E2CD0F1D17B9F080E2810F883040F499
:102F0000177081E001C0880F1A95EAF70E94711BC3
:102F1000C83048F481E09D2F977001C0880F9A95C2
:102F2000EAF70E946A1B802F0E94571BC830B8F432
:102F3000D77081E001C0880FDA95EAF70AC080E215
:102F40008C0F883060F4C77081E001C0880FCA958B
:102F5000EAF7DF91CF911F910F910C94711BDF91D4
:102F6000CF911F910F9108959C01CB01233F4CE518
:102F70003407F9F078F4283DFCE53F07B9F0293D26
:102F80004CE5340711F1273D3C4531F526E241EE91
:102F900061EE1EC0253FFCE53F0799F070F0263F2B
:102FA0003C45D1F427E245EE66EE12C027E245EE3D
:102FB0000EC026E241EE60EE0BC027E245EE64EE65
:102FC00007C026E241EE62EE03C028E241E065EE72
:102FD0000E94471780E00895FC018281882319F040
:102FE00010928E01089581E008959093940180934A
:102FF00093010895E0919301F0919401309721F0AD
:103000000190F081E02D099480E00895EF92FF9205
:103010001F93CF93DF93FC01A0919301B091940192
:10302000109709F442C080912201882341F08091D9
:103030008A0287FF04C08081818385E08083EF015D
:103040001296ED91FC911397CE0109958091220281
:1030500082FF2BC080FF04C082EA98E00E94F30543
:1030600018E08CE9E82E88E0F82E8091220280FF9B
:103070000BC088811F928F93FF92EF920E948C0663
:103080000F900F900F900F90115021961111EDCFCE
:103090008091220280FF09C08AE998E0DF91CF91F8
:1030A0001F91FF90EF900C94F305DF91CF911F914A
:1030B000FF90EF900895E0919301F0919401309783
:1030C00039F022E0DC012C930480F581E02D099495
:1030D000089520919101309192018217930771F028
:1030E0009093920180939101E0919301F09194016A
:1030F000309721F00680F781E02D09940895209102
:103100008F01309190018217930771F09093900195
:1031100080938F01E0919301F0919401309721F019
:103120000084F185E02D0994089585B7806885BFF6
:1031300085B7806885BF0895089508950C949D18FB
:1031400008950C94A0180E9495180E949C180C9445
:103150009E1881E008950E94BC260E94EB0C0E94FC
:1031600045270E9481150E9402140C94A118CF9348
:10317000C82F8091220282FF1EC080FF04C08BEB0B
:1031800098E00E94F3058091220280FF0CC01F92FC
:10319000CF9386EB98E09F938F930E948C060F90BD
:1031A0000F900F900F908091220280FF04C084EB5B
:1031B00098E00E94F3058C2FCF910C94E8064F9273
:1031C0005F927F928F929F92AF92BF92CF92DF9247
:1031D000EF92FF920F931F93CF93DF93CDB7DEB79C
:1031E0002A970FB6F894DEBF0FBECDBF0E944A0DDE
:1031F0000E94A918811111C08FEF89838A831B82D5
:103200000E94C5268160782F9D838C8349815A81D5
:103210006B818D810E949D1957C096E9C92E91E05E
:10322000D92E00E010E0AA24A394B12C702E802F98
:103230000E949B0C4C01F601419051906F01482671
:1032400059264114510431F40F5F1F4F043011050A
:1032500069F7D2CF8091220281FD0E94A40C20E068
:1032600030E07501022E02C0EE0CFF1C0A94E2F75A
:10327000C70184219521892B09F12E837F828E201D
:103280009F2091E0892809F490E098870E94C52644
:103290008160782F9A8789874E815F8168858A85CA
:1032A0000E949D19000F111FF801EA56FE4F808100
:1032B0009181E826F926F182E08206C02F5F3F4F18
:1032C0002C30310571F6C0CF0E945929109195011B
:1032D0000E94FA171817D9F00E94FA1780939501E7
:1032E0002A960FB6F894DEBF0FBECDBFDF91CF9107
:1032F0001F910F91FF90EF90DF90CF90BF90AF9014
:103300009F908F907F905F904F900C94B7182A9663
:103310000FB6F894DEBF0FBECDBFDF91CF911F91E6
:103320000F91FF90EF90DF90CF90BF90AF909F9064
:103330008F907F905F904F900895CF93DF93CDB79C
:10334000DEB72B970FB6F894DEBF0FBECDBF4F830D
:10335000588769877A878B87DE01119686E0FD01A1
:1033600011928A95E9F785E0FE01379601900D925A
:103370008A95E1F749815A816B817C818D819E819B
:103380000E94EA202B960FB6F894DEBF0FBECDBF89
:10339000DF91CF910895FC01808191810E94B62335
:1033A0000895882309F41AC18238C1F40E94FA17DB
:1033B00081FD14C169E380911001909111010E9477
:1033C00011260E9441242FEF81EE94E0215080408D
:1033D0009040E1F700C0000069E319C08338F9F4B8
:1033E0000E94FA1780FDFAC063E580911001909168
:1033F00011010E9411260E9441242FEF81EE94E0DA
:10340000215080409040E1F700C0000063E58091CA
:103410001001909111010E941C260C9441248438C3
:10342000C1F40E94FA1782FDD9C067E480911001AF
:10343000909111010E9411260E9441242FEF81EEEC
:1034400094E0215080409040E1F700C0000067E424
:10345000DECF9CEF980F913A40F4682F80911001D5
:10346000909111010E941126D8CF90E2980F9830C8
:1034700050F4877091E001C0990F8A95EAF7892F7F
:103480000E94F823CACF9BE5980F933070F4853AD9
:1034900029F0863A31F083E890E005C081E890E0B9
:1034A00002C082E890E00C94691898E5980F973173
:1034B00008F08EC0883A09F445C0893A09F445C03D
:1034C0008A3A09F445C08B3A09F445C08C3A09F4AC
:1034D00045C08B3B09F445C08C3B09F445C08D3A8F
:1034E00009F445C0803B09F445C08E3A09F445C053
:1034F0008F3A09F445C0813B09F445C0823B09F489
:1035000045C0833B09F445C0843B09F445C0853B75
:1035100009F445C0863B09F445C0873B09F445C022
:10352000883B09F445C0893B09F445C08D3B09F44B
:1035300045C08E3B09F445C08A3B09F445C080E094
:1035400090E044C082EE90E041C089EE90E03EC041
:103550008AEE90E03BC085EB90E038C086EB90E0CF
:1035600035C083EB90E032C084EB90E02FC087EB56
:1035700090E02CC08CEC90E029C08DEC90E026C04F
:1035800083E891E023C08AE891E020C082E991E0DD
:103590001DC084E991E01AC081E292E017C083E285
:1035A00092E014C084E292E011C085E292E00EC085
:1035B00086E292E00BC087E292E008C08FE690E0DE
:1035C00005C080E790E002C08AE292E00C947F1888
:1035D000803F20F00E94DF270C94CC280895882398
:1035E00009F464C0823879F40E94FA1781FF5EC042
:1035F00069E380911001909111010E9411260E94AF
:10360000412469E310C08338B1F40E94FA1780FFA7
:103610004DC063E580911001909111010E94112627
:103620000E94412463E580911001909111010E9454
:103630001C260C944124843879F40E94FA1782FFE6
:1036400035C067E480911001909111010E9411260C
:103650000E94412467E4E7CF9CEF980F913A10F461
:10366000682FE1CF90E2980F983050F4877091E086
:1036700001C0990F8A95EAF7892F0E94FE23D9CFBE
:103680009BE5980F933020F480E090E00C9469184B
:1036900098E5980F973120F480E090E00C947F1823
:1036A000803F20F00E9447280C94CC280895CF93A7
:1036B000C82F0E94D119C93349F42FEF87EE93E048
:1036C000215080409040E1F700C000008C2FCF9146
:1036D0000C94EF1A882321F00E94F8230C944124C3
:1036E0000895882321F00E94FE230C94412408951C
:1036F000BF92CF92DF92EF92FF920F931F93CF93DF
:10370000DF937C01062FC72FFC01158112951F70D6
:10371000D281D1110E9415240E94EE23882379F0D2
:10372000DD2369F080E2800F883048F082E00E945B
:103730008C240E94EE2391E0B82EB92601C0B12C52
:10374000CC2EC2948FE0C822D12CF601EA5AFF4F4A
:103750000C9463328C2F807FCF70882311F0C29538
:10376000C07FDD2399F0CC2309F4CFC180E2800F24
:10377000883010F0011104C08C2F0E94F82303C080
:103780008C2F0E9408240E944124BFC1802F0E94D8
:10379000EF1ACC2309F402C280E2800F883010F0C7
:1037A000011104C08C2F0E94FE2303C08C2F0E94A5
:1037B0000E240E944124F2C18C2F807FCF70803272
:1037C00011F0C295C07F002319F00130C9F022C06A
:1037D000DD2371F0112341F0113031F40E942824CF
:1037E0008C2B0E942E24DAC10E9428248C2B1DC011
:1037F000112319F0113009F4D1C10E94372425C0DA
:10380000DD2321F0163008F0C9C10EC0153008F0D4
:10381000C5C11BC0DD2361F0112331F0F7018581A3
:1038200080FF73C18F7085838C2F0E946A1BB6C185
:10383000112359F0093309F079C1FFEF27EE83E036
:10384000F15020408040E1F76FC18C2F0E94711B26
:10385000A5C18C2F86958695837090E0009719F00E
:10386000019761F09BC1DD2321F0802F9C2F937085
:1038700002C080E090E00E9469189BC1DD2321F026
:10388000802F9C2F937002C080E090E00E947F18F0
:1038900090C1DD23F9F0053F51F0063F71F0043F80
:1038A000A9F4809184029091850281600BC080917F
:1038B000840290918502826005C08091840290917B
:1038C000850284609093850280938402802F0E94F9
:1038D000DF271EC0053F51F0063F71F0043FA9F4F9
:1038E00080918402909185028E7F0BC0809184022A
:1038F000909185028D7F05C0809184029091850210
:103900008B7F9093850280938402802F0E944728AA
:103910000E94CC284EC18C2F837009F049C0D11170
:1039200044C1402F429546954770440F440F602F85
:103930006F70862F90E0A0E0B0E0042E04C0880FE6
:10394000991FAA1FBB1F0A94D2F704FF10C00FE0F3
:1039500010E020E030E004C0000F111F221F331FD1
:103960004A95D2F7009510952095309503C000E058
:1039700010E09801C695C695C370D0E0BC01CD019A
:10398000602B712B822B932BC230D10559F0C330A1
:10399000D10559F0219719F00E942F2206C10E94EB
:1039A0001D2203C10E94412200C10E941B22FDC0B2
:1039B000DD2319F08C2F817001C08695882309F4CE
:1039C000F4C0402F429546954770440F440F602F36
:1039D0006F70862F90E0A0E0B0E0042E04C0880F46
:1039E000991FAA1FBB1F0A94D2F704FF10C00FE053
:1039F00010E020E030E004C0000F111F221F331F31
:103A00004A95D2F7009510952095309503C000E0B7
:103A100010E09801C695C695C370D0E0BC01CD01F9
:103A2000602B712B822B932BC230D10559F0C33000
:103A3000D10559F0219719F00E94F522B6C00E94D5
:103A4000E322B3C00E940723B0C00E945622ADC03B
:103A5000CF70DD2339F08C2F0E947C22802F0E94B2
:103A60006A1BA3C0802F0E94711B8C2F0E949D2275
:103A70009CC0023F01F128F4003F41F0013FA1F05A
:103A800040C0033FF9F0043F39F13BC0DD2341F072
:103A9000153008F083C08C2F8F710E94C2227EC027
:103AA000163008F07BC0F7CFDD2339F08C2F8F71F3
:103AB0000E947C2273C0DD23C9F38C2F8F710E947A
:103AC0009D226CC0DD2329F08C2F8F710E9467220C
:103AD00065C00E94622262C0DD2349F0CF718C2F45
:103AE0000E947C2263E08C2F0E94772457C081E0E3
:103AF0000E948C24123008F451C082E00E948C2471
:103B00004DC0DD2331F0112389F2802F0E94D1199D
:103B100045C0112391F2093349F49FEFE7EEF3E03A
:103B20009150E040F040E1F700C00000802F0E947B
:103B3000EF1A34C04C2F4F70602FC7010E94B1099B
:103B40000E948E2136C0D11134C0CF70D0E0C23077
:103B5000D10599F03CF4209769F02197F9F40E947F
:103B6000DA1527C0C430D10571F054F02597B1F4AF
:103B700080E00AC00E94A2151CC00E944E1619C007
:103B80000E946A1616C084E00E94A81612C04C2F2C
:103B90004F70602FC7010E94B4090BC028E0C21A01
:103BA000D10884E0C816D10420F40E94FA170E94BC
:103BB000E806BB20D1F00E94EA2380FD16C0F70181
:103BC00012820E94E4230E947C22C7010E94FF1DF2
:103BD0000E94E423DF91CF911F910F91FF90EF900E
:103BE000DF90CF90BF900C949D22DF91CF911F91D9
:103BF0000F91FF90EF90DF90CF90BF9008950F93BB
:103C00001F93CF93DF93EC01888199812B813C81B5
:103C1000232BB9F09F3F11F48F3F99F0CE010E9402
:103C2000FA06882371F0688179818A810E94C12314
:103C30008C010E9419230E941A22B801CE010E9411
:103C4000781BDF91CF911F910F9108950E94152449
:103C50000E9425240E9441240E94F4290E94CC281D
:103C600080E090E00E94691880E090E00C947F185A
:103C700080911001909111010E9427260C94261E1C
:103C80000E9405240C94381EE92FE295EF70F0E0B5
:103C90003297EE30F105B0F4EA59FF4F0C946332DD
:103CA000803F91F018F4883E68F40EC0843F51F4D0
:103CB0000BC0883E48F0813F29F406C093FB88275B
:103CC00080F9089580E0089581E008950E94B62368
:103CD0000E94441E0895CF93DF9300D000D01F921E
:103CE000CDB7DEB70F900F900F900F900F90DF9130
:103CF000CF910895CF93DF9300D000D000D0CDB7FF
:103D0000DEB726960FB6F894DEBF0FBECDBFDF91AB
:103D1000CF9108951F93CF93DF93C0919F0116E039
:103D20008091A001C81799F0D0E01C9FF0011D9F61
:103D3000F00D1124EF55FE4F408151816281738156
:103D4000848195810E947A1E2196C770E9CFDF9108
:103D5000CF911F9108954091D1015091D20160916E
:103D6000D3017091D4018091D5019091D6010C942A
:103D70007A1E8091D60182958F7009F054C080918F
:103D8000D301882309F44FC080919F01A091A00125
:103D90006091D1017091D2014091D4015091D5012F
:103DA000B6E08A1709F43FC090E041155105C1F112
:103DB0007F3F11F46F3FA1F1B89FF001B99FF00D63
:103DC0001124EF55FE4F218172132AC02081621306
:103DD00027C02281211124C0238134812417350773
:103DE00010F421503109241B350B283C3105C0F457
:103DF0002091D6012F7020612093D60126E0289FC4
:103E0000F001299FF00D1124EA55FE4F80818F703B
:103E10008061808381ED91E00E94FF1D0C948A1ED9
:103E200001968770BECF0895CF92DF92EF92FF92F6
:103E30000F931F93CF93DF93CDB7DEB762970FB683
:103E4000F894DEBF0FBECDBF8C0185E0F801DE0126
:103E50001D9601900D928A95E1F7D8014C9111962B
:103E60005C91119712966C9112971396CD90DC90FD
:103E700014973091D1017091D2018091D401909129
:103E8000D501009709F46BC17F3F19F43F3F09F456
:103E900066C1E090D301EE2009F4C0C02091D601A4
:103EA000C816D90628F0F601E81BF90BCF0104C0AB
:103EB000809590958C0D9D1DFF24F394883C910571
:103EC00078F0F12C207F09F0C6C07C2DD98AC88AF1
:103ED00089890E946B1E81ED91E00E94FF1DB1C097
:103EE000822F807F09F046C0751314C0341312C0AE
:103EF000611110C02F7020612093D6010E94AB1E6B
:103F000081ED91E00E94FF1D8091D601D8011596A8
:103F10008C932EC0CD2819F15F3F11F44F3FF9F07B
:103F2000F62E61111CC080919F012091A00136E006
:103F3000821709F45AC090E0389FF001399FF00DC4
:103F40001124EF55FE4F7181571306C0708147133E
:103F500003C07281711103C001968770E9CFF62EFC
:103F6000662309F427C18091D60181608093D60130
:103F7000F12C20C1751308C0341306C0611104C0B0
:103F80008091D601D801C3C04D875E878D859E85FF
:103F90006A8B0E94661E6A898823E1F16623D1F14B
:103FA0002091D601822F82958F7090E0029774F055
:103FB0008091D1019091D20198878F831986DB86F9
:103FC000CA862C87CE0107960E94FF1D86E0F80165
:103FD000A1EDB1E001900D928A95E1F70E94B91E22
:103FE0000E94AB1EFF24F394E5C04D875E878D854C
:103FF0009E850E94B623292F22952F7030E0223013
:1040000031050CF0CBC09F7009F0C5C0805E8830D0
:1040100008F4D0C0C8010E94FF1DE4CFC816D9061D
:1040200008F453C0F601E81BF90BCF01883C910559
:1040300008F450C0F12C7C2DD98AC88A89890E9445
:104040006B1EE1EDF1E086E0DF011D928A95E9F754
:104050000E94AB1EAFC0751314C0341312C061119F
:1040600010C08091D601F8018583C8010E94FF1D10
:1040700086E0E1EDF1E0DF011D928A95E9F7FE2C83
:1040800099C04D875E878D859E856A8B0E94661ECE
:104090006A89882309F4BECF662309F4BBCF209137
:1040A000D601822F82958F7090E002970CF48ECF0C
:1040B0008091D1019091D2019A8389831B82DD8204
:1040C000CC822E83CE0101967FCF809590958C0D6A
:1040D0009D1DACCFF62E662309F49CCF75132EC020
:1040E00034132CC02091D60120FD1FC0822F829551
:1040F0008F70D9F0D80115962C9315978F3049F011
:104100008F5F982F9295907F822F8F70892B1596B5
:104110008C93C8010E94FF1D86E0F801A1EDB1E07B
:1041200001900D928A95E1F793CF86E0F801A1ED19
:10413000B1E001900D928A95E1F73CC04D875E8712
:104140008D859E850E94661E811140CF8091D6018B
:1041500081608093D601C8010E94FF1D2BC0662399
:1041600009F458CF4D875E878D859E850E94661E17
:10417000F82E882309F44ECF86E0F801A1EDB1E0D6
:1041800001900D928A95E1F781ED91E00E94CB19A3
:104190000E94B91E5DCF811139CF0CC0243031058A
:1041A0000CF038CF9F7009F431CFF8019581907FE2
:1041B00009F02CCF8F2D62960FB6F894DEBF0FBE9C
:1041C000CDBFDF91CF911F910F91FF90EF90DF90C6
:1041D000CF9008951F93CF93DF93CDB7DEB72C9781
:1041E0000FB6F894DEBF0FBECDBF4F8358876987E7
:1041F0007A878B879C87CE0107960E94141F88239D
:1042000069F08F8198852A853B85232BF1F19F3FAB
:1042100009F063C08F3F09F060C037C086E0FE013F
:104220003796DE01119601900D928A95E1F76F8124
:104230007885EA85FB85309741F17F3F11F46F3F28
:1042400021F12091A00130E0C901019687709927E2
:1042500040919F0150E08417950709F447C0698396
:104260007A83FD83EC8396E0929FD001939FB00DFB
:104270001124AF55BE4FFE01319601900D929A95D3
:10428000E1F78093A0010E948A1E16E080919F01B1
:104290009091A0018917C1F1189FC00111248F5579
:1042A0009E4F0E94141F882379F1E0919F011E9F69
:1042B000F0011124EF55FE4F4081518162817381DD
:1042C000848195810E947A1E80919F0190E00196E1
:1042D0008770992780939F01D9CF4F815885698531
:1042E0007A858B859C850E947A1ECFCF0E94401EC6
:1042F0001092A00110929F01E1EDF1E086E0DF0154
:104300001D928A95E9F7C1CF2C960FB6F894DEBFBF
:104310000FBECDBFDF91CF911F910895EF92FF9215
:104320000F931F93CF93DF938C01892B09F46CC0FB
:10433000F12CEE24E394E8012196F801849184376E
:1043400040F4843008F051C0813081F0823019F19E
:104350005BC0853709F444C0A8F19CE7980F9037FB
:1043600008F052C08F770E94EF1A41C00E5F1F4FB6
:10437000FE01C49180E28C0F883048F4C7708E2D06
:1043800001C0880FCA95EAF70E94182414C08C2F28
:104390000E94D1192DC00E5F1F4FFE01C49180E213
:1043A0008C0F883058F4C7708E2D01C0880FCA95C5
:1043B000EAF70E941E240E9441241AC08C2F0E94FA
:1043C000EF1A16C00E5F1F4FFE01C491CC2381F07F
:1043D0008FE99FE00197F1F700C00000C150F6CFD0
:1043E0000E5F1F4FFE01F49003C00E94D1198E0191
:1043F0008F2D882309F49FCFEFE9FFE03197F1F784
:1044000000C000008150F5CFDF91CF911F910F9137
:10441000FF90EF90089508950C940B220E940C22B7
:104420006093F9017093FA018093FB019093FC0172
:104430000C94261E08950C940E220F931F93009146
:10444000F9011091FA012091FB013091FC01602BE0
:10445000712B822B932B1F910F910C940E220F9393
:104460001F930091F9011091FA012091FB01309105
:10447000FC0160237123822393231F910F910C94DD
:104480000E220F931F930091F9011091FA012091D0
:10449000FB013091FC0160277127822793271F9130
:1044A0000F910C940E2208950C9453220E945422D2
:1044B0006093F5017093F6018093F7019093F801F2
:1044C0000C94261E60E070E0CB010C9456220F93F2
:1044D0001F9341E050E060E070E08A019B0104C05E
:1044E000000F111F221F331F8A95D2F7C901B8018F
:1044F0001F910F910C9456220F931F9341E050E0AF
:1045000060E070E004C0440F551F661F771F8A9556
:10451000D2F78091F5019091F601A091F701B09149
:10452000F8018A019B01082B192B2A2B3B2BC9016F
:10453000B8011F910F910C9456220F931F9341E0E5
:1045400050E060E070E004C0440F551F661F771F05
:104550008A95D2F740955095609570958091F501B8
:104560009091F601A091F701B091F8018A019B01A9
:10457000082319232A233B23C901B8011F910F9156
:104580000C9456220F931F9341E050E060E070E0DE
:1045900004C0440F551F661F771F8A95D2F780917C
:1045A000F5019091F601A091F701B091F8018A010F
:1045B0009B01082719272A273B27C901B8011F910A
:1045C0000F910C9456220F931F930091F5011091B7
:1045D000F6012091F7013091F801602B712B822BAD
:1045E000932B1F910F910C9456220F931F930091C0
:1045F000F5011091F6012091F7013091F801602347
:104600007123822393231F910F910C9456220F93B1
:104610001F930091F5011091F6012091F70130915F
:10462000F80160277127822793271F910F910C941F
:10463000562208952CE0929F800D1124A82FA69554
:10464000A695A695877051E001C0550F8A95EAF7A7
:1046500085E0A89FD001112420E030E070E0F9014E
:10466000EA0FFB1FE952FE4F4081CB01022E02C030
:10467000969587950A94E2F781709927819584270A
:104680008523842780832F5F3F4F2530310539F7FD
:1046900008952CE0929F800D1124682F66956695F1
:1046A0006695982F977085E0689FB001112440E0CF
:1046B00050E080E0FA01E60FF71FE952FE4F20813B
:1046C00030E0092E02C0369527950A94E2F7217052
:1046D0003327042E01C0220F0A94EAF7822B4F5F82
:1046E0005F4F4530510531F70895BF92CF92DF9269
:1046F000EF92FF920F931F93CF93DF938C01C090A3
:10470000F901D090FA01E090FB01F090FC0180915A
:10471000F5019091F601A091F701B091F801C82A36
:10472000D92AEA2AFB2ACFE1D0E0D701C6010C2E14
:1047300004C0B695A795979587950A94D2F780FF00
:1047400007C0BC2EB8018C2F0E94CF09019719F425
:10475000219758F7B12C8B2DDF91CF911F910F919D
:10476000FF90EF90DF90CF90BF900895CF93DF93AD
:10477000EC010E947523BE010E94CF09DF91CF9109
:1047800008951F93CF93DF93EB0190919E0199239E
:1047900021F0CB010E94B62313C0882349F0CB013E
:1047A0000E947523182F682FCE010E941A2304C07F
:1047B000CB010E944923182FBE01812F0E94CF09EF
:1047C000DF91CF911F9108958091FD018595859589
:1047D000859508958091FD01877008959091FD0160
:1047E000977081E009F480E0089580912102089596
:1047F00090912102892B80932102089580959091B8
:1048000021028923809321020895109221020895A4
:1048100090912002892B8093200208958095909199
:104820002002892380932002089510922002089587
:1048300090911F02892B80931F020895809590917B
:104840001F02892380931F02089510921F0208956A
:104850008091FE01089508950C942B249091FE01FF
:10486000981721F08093FE010C942C2408958091D8
:10487000FE01882329F01092FE0180E00C942C2484
:104880000895E0911001F09111018091210280833F
:10489000E0911001F0911101908180912002892B0B
:1048A0008083E0911001F0911101908180911F02AD
:1048B000892B80838091FE01882381F0E091100193
:1048C000F09111019081892B80838091100190914A
:1048D00011010E948A2581110E94372480911001C4
:1048E000909111010C94061808950C94742498E08A
:1048F000899F90011124262B2093FD010E947C2288
:104900008091FD018595859585950C94752410926F
:10491000FD0180E00C9475242091FD018095822397
:104920008093FD01982F977079F430E0482F082E7E
:10493000000C550B2417350739F08595859585951D
:104940000E949D220C94872408959093690180937E
:10495000680108958295982F9C7C392F369536955D
:10496000282F237344E0249FC0011124932F982BF8
:10497000292F2A7A2695892F8575880F822B0895ED
:104980001F93CF93DF931F92CDB7DEB799830E9419
:10499000AA24182F9981892F0E94AA24212F30E060
:1049A000322F2227A901482BCA010F90DF91CF9106
:1049B0001F91089580E090E00E949E3221E08C3E9D
:1049C0009E4F09F020E0822F089582E090E00C9441
:1049D000903283E090E00C949032CF9384E090E0AA
:1049E0000E949032C82F81E290E00E9490322C2FDA
:1049F00030E0A901582BCA01CF910895CF93C92F58
:104A0000682F84E090E00E94A4326C2F81E290E055
:104A1000CF910C94A43286E090E00C949032682FF1
:104A200086E090E00C94A432AB01BC018FE090E0F2
:104A30000C94B632AB01BC0183E190E00C94B63229
:104A400060E070E0CB010C941A2560E070E0CB01CF
:104A50000E9414250C9420256CEE7EEF80E090E0FF
:104A60000E94C23260E082E090E00E94A43260E0E6
:104A700083E090E00E94A4321092F9011092FA01B2
:104A80001092FB011092FC0160E084E090E00E9433
:104A9000A43260E081E290E00E94A43260E085E010
:104AA00090E00E94A43260E086E090E00E94A43290
:104AB0006FEF87E090E00E94A43240E050E0BA013E
:104AC00088E090E00E94B63260E08DE090E00E94C5
:104AD000A43240E050E0BA0188E190E00E94B63292
:104AE00060E087E190E00E94A43240E050E0BA012B
:104AF0008CE190E00E94B63260E080E290E00E949B
:104B0000A4320C9425250C942C25682F8EE090E07F
:104B10000C94A432FC01329680912201882331F05A
:104B200080918A0287FF02C09EE101C096E080E08A
:104B3000915028F021912223D9F38F5FF9CF089566
:104B40009C01FC0132969FEF80E04191461789F06D
:104B50009F3F19F4411101C0982F8F5F8630A9F74C
:104B60009F3F39F0F901E90FF11D97FDFA95628336
:104B700008950895FC01329608962081261301C0FD
:104B800010823196E817F907C1F70895262F269568
:104B9000269526952E3170F4FC01E20FF11D677009
:104BA00021E030E001C0220F6A95EAF78281282BCC
:104BB000228308958091220280FF0CC01F926F9380
:104BC0008CEE98E09F938F930E948C060F900F902D
:104BD0000F900F900895262F2695269526952E3115
:104BE00078F4FC01E20FF11D677021E030E001C0B4
:104BF000220F6A95EAF7209582812823228308955F
:104C00008091220280FF0CC01F926F938EEC98E07F
:104C10009F938F930E948C060F900F900F900F9090
:104C2000089520912201222329F020918A0227FD54
:104C30000C94C6250C94A02520912201222329F052
:104C400020918A0227FD0C94EB250C94BA25209123
:104C50002201FC013296222331F080918A0287FFE3
:104C600002C08EE101C086E0DF011D928A95E9F75E
:104C7000089508950C9439260E943A268091900256
:104C8000843061F11092230220E488E190E00FB6B5
:104C9000F894A895809360000FBE2093600080E098
:104CA0000E94D81680E00E94E8060E943A2683B748
:104CB000817F846083BF83B7816083BF7894889548
:104CC00083B78E7F83BF0FB6F894A895809160005C
:104CD000886180936000109260000FBE089508956F
:104CE0000895CF930E946F260E944A0D0E9470265D
:104CF000C0E08C2F0E949B0C892B29F4CF5FC4301D
:104D0000C1F780E001C081E0CF91089508950C942F
:104D100086260E94401E0E9481150E94FA170E945A
:104D2000E8060C9487261F920F920FB60F9211245B
:104D30008F939F93AF93BF9380912302811113C0F0
:104D40008091860290918702A0918802B091890299
:104D50004196A11DB11D8093860290938702A09376
:104D60008802B0938902BF91AF919F918F910F906C
:104D70000FBE0F901F90189582E084BD93E095BD03
:104D80009AEF97BD80936E0008952FB7F8948091A5
:104D9000860290918702A0918802B09189022FBF6C
:104DA0000895CF92DF92EF92FF920F931F932FB748
:104DB000F894409186025091870260918802709128
:104DC00089022FBF6A017B01EE24FF248C0120E0C1
:104DD00030E0C016D106E206F30610F44150510946
:104DE0009A01281B390BC9011F910F91FF90EF9079
:104DF000DF90CF90089578941F920F920FB60F9284
:104E000011248F939F93AF93BF93809186029091CB
:104E10008702A0918802B09189020196A11DB11D5F
:104E20008093860290938702A0938802B0938902B0
:104E3000BF91AF919F918F910F900FBE0F901F90D8
:104E4000189581E08093E00080E28093D800109272
:104E5000C9008FE19EE40197F1F700C0000087E0F0
:104E600090EBDC018093990290939A02A0939B02AD
:104E7000B0939C029CE088E10FB6F894A8958093CB
:104E800060000FBE90936000FFCF0E94DA24811172
:104E900002C00E9483250E94E524809322020E9482
:104EA000ED2490938B0280938A020E94E924682F5C
:104EB00070E080E090E00C941B228091270280FF3C
:104EC0000BC06091150185E0689FB00111247595B4
:104ED0006795759567952BC081FF09C06091150195
:104EE00085E0689FB00111247595679520C082FF09
:104EF00007C06091150185E0689FB001112417C0BB
:104F0000909126029923D1F060911401961788F7A9
:104F10002091150185E0289F90011124929FA00106
:104F2000939F500D112470E0CA010E942D32603809
:104F3000710540F46115710539F002C065E070E05B
:104F4000862F08958FE7089581E0089580912702C4
:104F500080FF08C06091130170E0759567957595A5
:104F6000679521C081FF06C06091130170E07595BF
:104F7000679519C082FF04C06091130170E010C0F2
:104F8000909126029923C1F0609112019617A0F723
:104F900080911301899FC001112470E00E942D327D
:104FA0006038710528F46115710521F0862F089588
:104FB0008FE7089581E0089561E070E0F4CF803FCD
:104FC00021F40E945D27819504C0813F29F40E944D
:104FD0005D2780932B020895823F21F40E945D2774
:104FE000819504C0833F29F40E945D2780932A02A3
:104FF0000895893F19F40E94A62705C08A3F31F41D
:105000000E94A627819580932C0208958B3F21F45E
:105010000E94A627819504C08C3F29F40E94A627F0
:1050200080932D020895843F21F4809129028160AC
:1050300017C0853F21F480912902826011C0863F0C
:1050400021F48091290284600BC0873F21F4809174
:105050002902886005C0883F31F48091290280616F
:105060008093290208958D3F21F480912702816069
:105070000BC08E3F21F480912702826005C08F3FD4
:1050800029F4809127028460809327020895803F4D
:1050900039F480912B0287FF6CC010922B0269C0FB
:1050A000813F29F480912B021816BCF362C09091C5
:1050B0002A02823F29F497FF5CC010922A0259C04D
:1050C000833F19F41916CCF354C0893F41F4809101
:1050D0002C0218160CF04DC010922C024AC08A3FC8
:1050E00029F480912C0287FF44C0F6CF8B3F39F41E
:1050F00080912D0287FF3DC010922D023AC08C3F57
:1051000029F480912D021816BCF333C0843F21F49A
:10511000809129028E7F17C0853F21F4809129025A
:105120008D7F11C0863F21F4809129028B7F0BC0B7
:10513000873F21F480912902877F05C0883F31F4A1
:10514000809129028F7E8093290213C08D3F21F424
:10515000809127028E7F0BC08E3F21F48091270221
:105160008D7F05C08F3F29F4809127028B7F80932C
:10517000270280912A0281110EC080912B02811199
:105180000AC080912C02811106C080912D028111EC
:1051900002C01092260208958091220283FF7EC0F1
:1051A00081E399E00E94F305809129021F928F9379
:1051B0008CE299E09F938F930E948C068AE299E09B
:1051C0000E94F30580912A02282F082E000C330B31
:1051D0003F938F9387E299E09F938F930E948C0671
:1051E00085E299E00E94F30580912B02282F082E7A
:1051F000000C330B3F938F9382E299E09F938F9340
:105200000E948C0680E299E00E94F30580912C02B6
:10521000282F082E000C330B3F938F938DE199E0DC
:105220009F938F930E948C068BE199E00E94F30577
:1052300080912D02282F082E000C330B3F938F9363
:1052400088E199E09F938F930E948C0685E199E015
:105250000E94F305809126021F928F9382E199E0CC
:105260009F938F930E948C0680E199E00E94F30542
:10527000809127021F928F938DE099E09F938F93E7
:105280000E948C068AE099E00E94F3058DB79EB7D4
:105290004C960FB6F8949EBF0FBE8DBF88E292E089
:1052A0000E945B180E94C5269093250280932402D9
:1052B00008951F93CF93DF9380912402909125024C
:1052C0000E94D126AC0190912602992321F02091D1
:1052D000160130E006C0209117018AE0289F900156
:1052E00011244217530708F47BC080912A02C09111
:1052F0002B02D0912C0210912D02811107C0C111F7
:105300006BC0D11169C0111167C06AC09F3F19F00D
:105310009F5F90932602181624F40E945D278093C5
:105320002A0280912A0287FF05C00E945D2781958D
:1053300080932A021C1624F40E945D2780932B027E
:1053400080912B0287FF05C00E945D278195809385
:105350002B0230912A023323E1F020912B022223E9
:10536000C1F045EB3403C0011124892F990F990B2B
:10537000009709F481E080932A0235EB2303C001F2
:105380001124892F990F990B009709F481E08093DC
:105390002B021D1624F40E94A62780932C028091D4
:1053A0002C0287FF05C00E94A627819580932C02BE
:1053B000111624F40E94A62780932D0280912D02BD
:1053C00087FF05C00E94A627819580932D02DF915B
:1053D000CF911F910C94CC289F3F09F099CFA1CF7A
:1053E000DF91CF911F910895E8E2F2E086E0DF01BE
:1053F0001D928A95E9F710922602109227020895CD
:105400008091510208959FB7F894109230029FBF87
:1054100090919002943009F057C09091E9009F70EC
:105420003091EC00232F217030FD20E8922B23E0F7
:105430002093E9002091EB0020FF43C02091EE0073
:1054400027FF3FC020912E02222321F02091E80067
:1054500025FF37C010922E0226E03091E80035FD7E
:1054600015C030919002343061F53091EB0035FD7C
:1054700028C0215021F481E080932E0222C0EFE960
:10548000FFE03197F1F700C00000E7CF8093F10013
:105490008091E80085FD0AC08091E80080FFFCCF84
:1054A0008091E8008E778093E80006C08FB7F8946B
:1054B00021E0209330028FBF9F709093E90080E03D
:1054C00008959F709093E9008FEF08950F931F93B5
:1054D000CF93DF9300D01F92CDB7DEB78C010E942F
:1054E000372D823011F0843021F584E089831B83CD
:1054F0000A8382E08093E9008FEF9091E800815069
:1055000095FD06C095ED9A95F1F700008111F5CF54
:105510008091E80085FF0DC040E050E063E070E05E
:10552000CE0101960E94542D8091E8008E778093E1
:10553000E8000F900F900F90DF91CF911F910F9186
:105540000895CF93DF9300D01F92CDB7DEB720919F
:105550009002243031F523E02983805891099B8300
:105560008A8382E08093E9008FEF9091E800815078
:1055700095FD06C095ED9A95F1F700008111F5CFE4
:105580008091E80085FF0DC040E050E063E070E0EE
:10559000CE0101960E94542D8091E8008E77809371
:1055A000E8000F900F900F90DF91CF910895CF9367
:1055B000DF93EC010E94372D823011F08430F9F432
:1055C00082E08093E9009FEF8091E800915085FD93
:1055D00006C085ED8A95F1F700009111F5CF809115
:1055E000E80085FF0CC040E050E066E070E0CE01CE
:1055F0000E94542D8091E8008E778093E800DF911F
:10560000CF910895CF93DF93EC010E94372D823024
:1056100011F08430D9F580912201882339F08091EE
:105620008A0287FF03C060E282E002C068E081E096
:105630008093E9008FEF9091E800815095FD06C0BE
:1056400095ED9A95F1F700008111F5CF8091E80072
:1056500085FF1CC080912201811105C040E050E00F
:1056600068E070E003C070E040E050E0CE010E94CE
:10567000542D8091E8008E778093E80080E2FE014F
:10568000A1E3B2E001900D928A95E1F7DF91CF910D
:10569000089589E799E00E94F30580918F028111B6
:1056A00009C00E94E92E0E94462F8091E20084608A
:1056B0008093E200089585E799E00E94F305109237
:1056C0008F02089581E799E00C94F3058DE699E047
:1056D0000C94F30589E699E00E94F3050C94892661
:1056E00020912F022F5F822F62E30E94FF319923C6
:1056F00019F020932F02089510922F02809130020A
:10570000882371F180919002843041F58091E90005
:105710008F702091EC00922F917020FD90E8892BE2
:1057200093E09093E9009091EB0090FF14C090916A
:10573000EE0097FF10C09091E80095FF03C0109213
:10574000F100F9CF9091E80090FF05C09091E8003A
:105750009E779093E8008F708093E900109230025A
:10576000089542E061EC81E00E94632E42E261EC28
:1057700082E00E94632E42E261EC83E00C94632E8F
:1057800080919202833009F460C030F4813071F06E
:10579000823009F499C008958A3009F485C08B30AD
:1057A00009F46BC0893009F0A7C020C08091910234
:1057B000813A09F0A1C08091E800877F8093E800DA
:1057C0008091950290919602892B21F460E281E309
:1057D00092E003C060E080E090E070E00E949F2DC6
:1057E0008091E8008B778093E80008958091910282
:1057F000813209F081C080919502909196020297C2
:1058000008F07AC08091E800877F8093E80080915B
:10581000E80082FD05C0809190028111F8CF6CC034
:105820002091F3008091F20090E0922B029729F4EE
:105830008091F1008B7F813021F48091F100809381
:1058400051028091E8008B7753C080919102813A98
:1058500009F052C08091950290919602892B09F02F
:105860004BC08091E800877F8093E8008091E8003A
:1058700080FFFCCF8091220136C08091910281325D
:10588000D9F58091950290919602892BA9F5809186
:10589000E800877F8093E8000E94982E8091930211
:1058A000809322010C94401E80919102813221F557
:1058B0008091E800877F8093E8000E94982E809175
:1058C000940280935202089580919102813AA1F44A
:1058D0008091E800877F8093E8008091E80080FF56
:1058E000FCCF809152028093F1008091E8008E7786
:1058F0008093E8000C94982E089584B7877F84BF26
:105900000FB6F894A895809160008861809360003C
:10591000109260000FBE80E88093610010926100D9
:105920000E94A3180E94E92E0E94462F8091E20057
:1059300084608093E20083E09AE20E94A524789438
:105940000E94D4310E94AB1888E191E00E94F517C3
:1059500088E599E00E94F30580919002853089F4F2
:1059600084E599E00E94F3050E943C2680918E0216
:10597000882391F30E947126882371F30E943E2DA3
:10598000EBCF0E94DF180E94B214E6CF0C94C82C13
:10599000292F332723303105C9F064F42130310534
:1059A00081F02230310509F049C08BE590E02DEA05
:1059B00039E048C02132310521F12232310571F13F
:1059C0003DC082E190E028E03AE03CC09927813078
:1059D000910571F02CF4892B89F5E9EAF9E00DC005
:1059E0008230910541F0039749F5EDE7F9E005C0F4
:1059F000E7E9F9E002C0E3E8F9E0849190E09F0173
:105A000021C063307105D0F4660F771FFB01EF5999
:105A1000FE4F2081318189E090E014C06330710530
:105A200068F4FB01EE0FFF1FE55AFE4F2081318124
:105A3000FB01E85AFE4F808190E004C080E090E0D6
:105A400020E030E0FA013183208308950895CF9358
:105A5000C82F0E94262DC0935302CF9108958091A4
:105A60009002843011F081E0089582E008958091E1
:105A70005302811102C00C942F2D089580E189BD3D
:105A800082E189BD09B400FEFDCF8091D8008F7DF1
:105A90008093D8008091E00082608093E000809144
:105AA000E00081FDFCCF0895CF92DF92EF92FF924C
:105AB0000F931F93CF93DF93EC018B016A010E9438
:105AC000B72E811133C0C114D10439F0F6018081A1
:105AD0009181081B190BC80FD91FE12CF12C01155E
